{"abi":[{"inputs":[{"internalType":"uint256","name":"minimum","type":"uint256"},{"internalType":"address","name":"creator","type":"address"}],"stateMutability":"payable","type":"constructor"},{"inputs":[{"internalType":"uint256","name":"index","type":"uint256"}],"name":"approveRequest","outputs":[],"stateMutability":"nonpayable","type":"function"},{"inputs":[{"internalType":"address","name":"","type":"address"}],"name":"approvers","outputs":[{"internalType":"bool","name":"","type":"bool"}],"stateMutability":"view","type":"function"},{"inputs":[],"name":"contribute","outputs":[],"stateMutability":"payable","type":"function"},{"inputs":[],"name":"contributorCount","outputs":[{"internalType":"uint256","name":"","type":"uint256"}],"stateMutability":"view","type":"function"},{"inputs":[{"internalType":"string","name":"description","type":"string"},{"internalType":"uint256","name":"value","type":"uint256"},{"internalType":"address payable","name":"recipient","type":"address"}],"name":"createRequests","outputs":[],"stateMutability":"nonpayable","type":"function"},{"inputs":[{"internalType":"uint256","name":"index","type":"uint256"}],"name":"finalizeRequest","outputs":[],"stateMutability":"nonpayable","type":"function"},{"inputs":[],"name":"getRequestsCount","outputs":[{"internalType":"uint256","name":"","type":"uint256"}],"stateMutability":"view","type":"function"},{"inputs":[],"name":"getSummary","outputs":[{"internalType":"uint256","name":"","type":"uint256"},{"internalType":"uint256","name":"","type":"uint256"},{"internalType":"uint256","name":"","type":"uint256"},{"internalType":"uint256","name":"","type":"uint256"},{"internalType":"address","name":"","type":"address"}],"stateMutability":"view","type":"function"},{"inputs":[],"name":"manager","outputs":[{"internalType":"address","name":"","type":"address"}],"stateMutability":"view","type":"function"},{"inputs":[],"name":"minContribution","outputs":[{"internalType":"uint256","name":"","type":"uint256"}],"stateMutability":"view","type":"function"},{"inputs":[],"name":"requestIndex","outputs":[{"internalType":"uint256","name":"","type":"uint256"}],"stateMutability":"view","type":"function"},{"inputs":[{"internalType":"uint256","name":"","type":"uint256"}],"name":"requests","outputs":[{"internalType":"string","name":"description","type":"string"},{"internalType":"uint256","name":"value","type":"uint256"},{"internalType":"address payable","name":"recipient","type":"address"},{"internalType":"bool","name":"complete","type":"bool"},{"internalType":"uint256","name":"approvalCount","type":"uint256"}],"stateMutability":"view","type":"function"}],"devdoc":{"kind":"dev","methods":{},"version":1},"evm":{"assembly":"    /* \"campaign.sol\":433:3058  contract Campaign {... */\n  mstore(0x40, 0x80)\n    /* \"campaign.sol\":902:1083  constructor(uint minimum, address creator) payable {... */\n  mload(0x40)\n  sub(codesize, bytecodeSize)\n  dup1\n  bytecodeSize\n  dup4\n  codecopy\n  dup2\n  dup2\n  add\n  0x40\n  mstore\n  dup2\n  add\n  swap1\n  tag_1\n  swap2\n  swap1\n  tag_2\n  jump\t// in\ntag_1:\n    /* \"campaign.sol\":974:981  creator */\n  dup1\n    /* \"campaign.sol\":964:971  manager */\n  0x00\n  dup1\n    /* \"campaign.sol\":964:981  manager = creator */\n  0x0100\n  exp\n  dup2\n  sload\n  dup2\n  0xffffffffffffffffffffffffffffffffffffffff\n  mul\n  not\n  and\n  swap1\n  dup4\n  0xffffffffffffffffffffffffffffffffffffffff\n  and\n  mul\n  or\n  swap1\n  sstore\n  pop\n    /* \"campaign.sol\":1010:1017  minimum */\n  dup2\n    /* \"campaign.sol\":992:1007  minContribution */\n  0x01\n    /* \"campaign.sol\":992:1017  minContribution = minimum */\n  dup2\n  swap1\n  sstore\n  pop\n    /* \"campaign.sol\":1047:1048  0 */\n  0x00\n    /* \"campaign.sol\":1028:1044  contributorCount */\n  0x02\n    /* \"campaign.sol\":1028:1048  contributorCount = 0 */\n  dup2\n  swap1\n  sstore\n  pop\n    /* \"campaign.sol\":1074:1075  0 */\n  0x00\n    /* \"campaign.sol\":1059:1071  requestIndex */\n  0x03\n    /* \"campaign.sol\":1059:1075  requestIndex = 0 */\n  dup2\n  swap1\n  sstore\n  pop\n    /* \"campaign.sol\":902:1083  constructor(uint minimum, address creator) payable {... */\n  pop\n  pop\n    /* \"campaign.sol\":433:3058  contract Campaign {... */\n  jump(tag_5)\n    /* \"#utility.yul\":88:205   */\ntag_7:\n    /* \"#utility.yul\":197:198   */\n  0x00\n    /* \"#utility.yul\":194:195   */\n  dup1\n    /* \"#utility.yul\":187:199   */\n  revert\n    /* \"#utility.yul\":334:411   */\ntag_9:\n    /* \"#utility.yul\":371:378   */\n  0x00\n    /* \"#utility.yul\":400:405   */\n  dup2\n    /* \"#utility.yul\":389:405   */\n  swap1\n  pop\n    /* \"#utility.yul\":334:411   */\n  swap2\n  swap1\n  pop\n  jump\t// out\n    /* \"#utility.yul\":417:539   */\ntag_10:\n    /* \"#utility.yul\":490:514   */\n  tag_22\n    /* \"#utility.yul\":508:513   */\n  dup2\n    /* \"#utility.yul\":490:514   */\n  tag_9\n  jump\t// in\ntag_22:\n    /* \"#utility.yul\":483:488   */\n  dup2\n    /* \"#utility.yul\":480:515   */\n  eq\n    /* \"#utility.yul\":470:533   */\n  tag_23\n  jumpi\n    /* \"#utility.yul\":529:530   */\n  0x00\n    /* \"#utility.yul\":526:527   */\n  dup1\n    /* \"#utility.yul\":519:531   */\n  revert\n    /* \"#utility.yul\":470:533   */\ntag_23:\n    /* \"#utility.yul\":417:539   */\n  pop\n  jump\t// out\n    /* \"#utility.yul\":545:688   */\ntag_11:\n    /* \"#utility.yul\":602:607   */\n  0x00\n    /* \"#utility.yul\":633:639   */\n  dup2\n    /* \"#utility.yul\":627:640   */\n  mload\n    /* \"#utility.yul\":618:640   */\n  swap1\n  pop\n    /* \"#utility.yul\":649:682   */\n  tag_25\n    /* \"#utility.yul\":676:681   */\n  dup2\n    /* \"#utility.yul\":649:682   */\n  tag_10\n  jump\t// in\ntag_25:\n    /* \"#utility.yul\":545:688   */\n  swap3\n  swap2\n  pop\n  pop\n  jump\t// out\n    /* \"#utility.yul\":694:820   */\ntag_12:\n    /* \"#utility.yul\":731:738   */\n  0x00\n    /* \"#utility.yul\":771:813   */\n  0xffffffffffffffffffffffffffffffffffffffff\n    /* \"#utility.yul\":764:769   */\n  dup3\n    /* \"#utility.yul\":760:814   */\n  and\n    /* \"#utility.yul\":749:814   */\n  swap1\n  pop\n    /* \"#utility.yul\":694:820   */\n  swap2\n  swap1\n  pop\n  jump\t// out\n    /* \"#utility.yul\":826:922   */\ntag_13:\n    /* \"#utility.yul\":863:870   */\n  0x00\n    /* \"#utility.yul\":892:916   */\n  tag_28\n    /* \"#utility.yul\":910:915   */\n  dup3\n    /* \"#utility.yul\":892:916   */\n  tag_12\n  jump\t// in\ntag_28:\n    /* \"#utility.yul\":881:916   */\n  swap1\n  pop\n    /* \"#utility.yul\":826:922   */\n  swap2\n  swap1\n  pop\n  jump\t// out\n    /* \"#utility.yul\":928:1050   */\ntag_14:\n    /* \"#utility.yul\":1001:1025   */\n  tag_30\n    /* \"#utility.yul\":1019:1024   */\n  dup2\n    /* \"#utility.yul\":1001:1025   */\n  tag_13\n  jump\t// in\ntag_30:\n    /* \"#utility.yul\":994:999   */\n  dup2\n    /* \"#utility.yul\":991:1026   */\n  eq\n    /* \"#utility.yul\":981:1044   */\n  tag_31\n  jumpi\n    /* \"#utility.yul\":1040:1041   */\n  0x00\n    /* \"#utility.yul\":1037:1038   */\n  dup1\n    /* \"#utility.yul\":1030:1042   */\n  revert\n    /* \"#utility.yul\":981:1044   */\ntag_31:\n    /* \"#utility.yul\":928:1050   */\n  pop\n  jump\t// out\n    /* \"#utility.yul\":1056:1199   */\ntag_15:\n    /* \"#utility.yul\":1113:1118   */\n  0x00\n    /* \"#utility.yul\":1144:1150   */\n  dup2\n    /* \"#utility.yul\":1138:1151   */\n  mload\n    /* \"#utility.yul\":1129:1151   */\n  swap1\n  pop\n    /* \"#utility.yul\":1160:1193   */\n  tag_33\n    /* \"#utility.yul\":1187:1192   */\n  dup2\n    /* \"#utility.yul\":1160:1193   */\n  tag_14\n  jump\t// in\ntag_33:\n    /* \"#utility.yul\":1056:1199   */\n  swap3\n  swap2\n  pop\n  pop\n  jump\t// out\n    /* \"#utility.yul\":1205:1712   */\ntag_2:\n    /* \"#utility.yul\":1284:1290   */\n  0x00\n    /* \"#utility.yul\":1292:1298   */\n  dup1\n    /* \"#utility.yul\":1341:1343   */\n  0x40\n    /* \"#utility.yul\":1329:1338   */\n  dup4\n    /* \"#utility.yul\":1320:1327   */\n  dup6\n    /* \"#utility.yul\":1316:1339   */\n  sub\n    /* \"#utility.yul\":1312:1344   */\n  slt\n    /* \"#utility.yul\":1309:1428   */\n  iszero\n  tag_35\n  jumpi\n    /* \"#utility.yul\":1347:1426   */\n  tag_36\n  tag_7\n  jump\t// in\ntag_36:\n    /* \"#utility.yul\":1309:1428   */\ntag_35:\n    /* \"#utility.yul\":1467:1468   */\n  0x00\n    /* \"#utility.yul\":1492:1556   */\n  tag_37\n    /* \"#utility.yul\":1548:1555   */\n  dup6\n    /* \"#utility.yul\":1539:1545   */\n  dup3\n    /* \"#utility.yul\":1528:1537   */\n  dup7\n    /* \"#utility.yul\":1524:1546   */\n  add\n    /* \"#utility.yul\":1492:1556   */\n  tag_11\n  jump\t// in\ntag_37:\n    /* \"#utility.yul\":1482:1556   */\n  swap3\n  pop\n    /* \"#utility.yul\":1438:1566   */\n  pop\n    /* \"#utility.yul\":1605:1607   */\n  0x20\n    /* \"#utility.yul\":1631:1695   */\n  tag_38\n    /* \"#utility.yul\":1687:1694   */\n  dup6\n    /* \"#utility.yul\":1678:1684   */\n  dup3\n    /* \"#utility.yul\":1667:1676   */\n  dup7\n    /* \"#utility.yul\":1663:1685   */\n  add\n    /* \"#utility.yul\":1631:1695   */\n  tag_15\n  jump\t// in\ntag_38:\n    /* \"#utility.yul\":1621:1695   */\n  swap2\n  pop\n    /* \"#utility.yul\":1576:1705   */\n  pop\n    /* \"#utility.yul\":1205:1712   */\n  swap3\n  pop\n  swap3\n  swap1\n  pop\n  jump\t// out\n    /* \"campaign.sol\":433:3058  contract Campaign {... */\ntag_5:\n  dataSize(sub_0)\n  dup1\n  dataOffset(sub_0)\n  0x00\n  codecopy\n  0x00\n  return\nstop\n\nsub_0: assembly {\n        /* \"campaign.sol\":433:3058  contract Campaign {... */\n      mstore(0x40, 0x80)\n      jumpi(tag_1, lt(calldatasize, 0x04))\n      shr(0xe0, calldataload(0x00))\n      dup1\n      0x481c6a75\n      gt\n      tag_14\n      jumpi\n      dup1\n      0x481c6a75\n      eq\n      tag_8\n      jumpi\n      dup1\n      0x81d12c58\n      eq\n      tag_9\n      jumpi\n      dup1\n      0xaaffadf3\n      eq\n      tag_10\n      jumpi\n      dup1\n      0xd7bb99ba\n      eq\n      tag_11\n      jumpi\n      dup1\n      0xd7d1bbdb\n      eq\n      tag_12\n      jumpi\n      dup1\n      0xecfd8928\n      eq\n      tag_13\n      jumpi\n      jump(tag_1)\n    tag_14:\n      dup1\n      0x03441006\n      eq\n      tag_2\n      jumpi\n      dup1\n      0x0a144391\n      eq\n      tag_3\n      jumpi\n      dup1\n      0x277c3da4\n      eq\n      tag_4\n      jumpi\n      dup1\n      0x3410452a\n      eq\n      tag_5\n      jumpi\n      dup1\n      0x4051ddac\n      eq\n      tag_6\n      jumpi\n      dup1\n      0x420714bd\n      eq\n      tag_7\n      jumpi\n    tag_1:\n      0x00\n      dup1\n      revert\n        /* \"campaign.sol\":2352:2687  function finalizeRequest(uint index) public onlyManager {... */\n    tag_2:\n      callvalue\n      dup1\n      iszero\n      tag_15\n      jumpi\n      0x00\n      dup1\n      revert\n    tag_15:\n      pop\n      tag_16\n      0x04\n      dup1\n      calldatasize\n      sub\n      dup2\n      add\n      swap1\n      tag_17\n      swap2\n      swap1\n      tag_18\n      jump\t// in\n    tag_17:\n      tag_19\n      jump\t// in\n    tag_16:\n      stop\n        /* \"campaign.sol\":804:846  mapping(address =>  bool) public approvers */\n    tag_3:\n      callvalue\n      dup1\n      iszero\n      tag_20\n      jumpi\n      0x00\n      dup1\n      revert\n    tag_20:\n      pop\n      tag_21\n      0x04\n      dup1\n      calldatasize\n      sub\n      dup2\n      add\n      swap1\n      tag_22\n      swap2\n      swap1\n      tag_23\n      jump\t// in\n    tag_22:\n      tag_24\n      jump\t// in\n    tag_21:\n      mload(0x40)\n      tag_25\n      swap2\n      swap1\n      tag_26\n      jump\t// in\n    tag_25:\n      mload(0x40)\n      dup1\n      swap2\n      sub\n      swap1\n      return\n        /* \"campaign.sol\":1415:1871  function createRequests(string memory description, uint value, address payable recipient) ... */\n    tag_4:\n      callvalue\n      dup1\n      iszero\n      tag_27\n      jumpi\n      0x00\n      dup1\n      revert\n    tag_27:\n      pop\n      tag_28\n      0x04\n      dup1\n      calldatasize\n      sub\n      dup2\n      add\n      swap1\n      tag_29\n      swap2\n      swap1\n      tag_30\n      jump\t// in\n    tag_29:\n      tag_31\n      jump\t// in\n    tag_28:\n      stop\n        /* \"campaign.sol\":2962:3055  function getRequestsCount() public view returns (uint) {... */\n    tag_5:\n      callvalue\n      dup1\n      iszero\n      tag_32\n      jumpi\n      0x00\n      dup1\n      revert\n    tag_32:\n      pop\n      tag_33\n      tag_34\n      jump\t// in\n    tag_33:\n      mload(0x40)\n      tag_35\n      swap2\n      swap1\n      tag_36\n      jump\t// in\n    tag_35:\n      mload(0x40)\n      dup1\n      swap2\n      sub\n      swap1\n      return\n        /* \"campaign.sol\":2695:2954  function getSummary() public view returns (uint, uint, uint, uint, address) {... */\n    tag_6:\n      callvalue\n      dup1\n      iszero\n      tag_37\n      jumpi\n      0x00\n      dup1\n      revert\n    tag_37:\n      pop\n      tag_38\n      tag_39\n      jump\t// in\n    tag_38:\n      mload(0x40)\n      tag_40\n      swap6\n      swap5\n      swap4\n      swap3\n      swap2\n      swap1\n      tag_41\n      jump\t// in\n    tag_40:\n      mload(0x40)\n      dup1\n      swap2\n      sub\n      swap1\n      return\n        /* \"campaign.sol\":771:795  uint public requestIndex */\n    tag_7:\n      callvalue\n      dup1\n      iszero\n      tag_42\n      jumpi\n      0x00\n      dup1\n      revert\n    tag_42:\n      pop\n      tag_43\n      tag_44\n      jump\t// in\n    tag_43:\n      mload(0x40)\n      tag_45\n      swap2\n      swap1\n      tag_36\n      jump\t// in\n    tag_45:\n      mload(0x40)\n      dup1\n      swap2\n      sub\n      swap1\n      return\n        /* \"campaign.sol\":673:695  address public manager */\n    tag_8:\n      callvalue\n      dup1\n      iszero\n      tag_46\n      jumpi\n      0x00\n      dup1\n      revert\n    tag_46:\n      pop\n      tag_47\n      tag_48\n      jump\t// in\n    tag_47:\n      mload(0x40)\n      tag_49\n      swap2\n      swap1\n      tag_50\n      jump\t// in\n    tag_49:\n      mload(0x40)\n      dup1\n      swap2\n      sub\n      swap1\n      return\n        /* \"campaign.sol\":853:893  mapping(uint => Request) public requests */\n    tag_9:\n      callvalue\n      dup1\n      iszero\n      tag_51\n      jumpi\n      0x00\n      dup1\n      revert\n    tag_51:\n      pop\n      tag_52\n      0x04\n      dup1\n      calldatasize\n      sub\n      dup2\n      add\n      swap1\n      tag_53\n      swap2\n      swap1\n      tag_18\n      jump\t// in\n    tag_53:\n      tag_54\n      jump\t// in\n    tag_52:\n      mload(0x40)\n      tag_55\n      swap6\n      swap5\n      swap4\n      swap3\n      swap2\n      swap1\n      tag_56\n      jump\t// in\n    tag_55:\n      mload(0x40)\n      dup1\n      swap2\n      sub\n      swap1\n      return\n        /* \"campaign.sol\":702:729  uint public minContribution */\n    tag_10:\n      callvalue\n      dup1\n      iszero\n      tag_57\n      jumpi\n      0x00\n      dup1\n      revert\n    tag_57:\n      pop\n      tag_58\n      tag_59\n      jump\t// in\n    tag_58:\n      mload(0x40)\n      tag_60\n      swap2\n      swap1\n      tag_36\n      jump\t// in\n    tag_60:\n      mload(0x40)\n      dup1\n      swap2\n      sub\n      swap1\n      return\n        /* \"campaign.sol\":1183:1407  function contribute() public payable {... */\n    tag_11:\n      tag_61\n      tag_62\n      jump\t// in\n    tag_61:\n      stop\n        /* \"campaign.sol\":1879:2344  function approveRequest(uint index) public {... */\n    tag_12:\n      callvalue\n      dup1\n      iszero\n      tag_63\n      jumpi\n      0x00\n      dup1\n      revert\n    tag_63:\n      pop\n      tag_64\n      0x04\n      dup1\n      calldatasize\n      sub\n      dup2\n      add\n      swap1\n      tag_65\n      swap2\n      swap1\n      tag_18\n      jump\t// in\n    tag_65:\n      tag_66\n      jump\t// in\n    tag_64:\n      stop\n        /* \"campaign.sol\":736:764  uint public contributorCount */\n    tag_13:\n      callvalue\n      dup1\n      iszero\n      tag_67\n      jumpi\n      0x00\n      dup1\n      revert\n    tag_67:\n      pop\n      tag_68\n      tag_69\n      jump\t// in\n    tag_68:\n      mload(0x40)\n      tag_70\n      swap2\n      swap1\n      tag_36\n      jump\t// in\n    tag_70:\n      mload(0x40)\n      dup1\n      swap2\n      sub\n      swap1\n      return\n        /* \"campaign.sol\":2352:2687  function finalizeRequest(uint index) public onlyManager {... */\n    tag_19:\n        /* \"campaign.sol\":1147:1154  manager */\n      0x00\n      dup1\n      sload\n      swap1\n      0x0100\n      exp\n      swap1\n      div\n      0xffffffffffffffffffffffffffffffffffffffff\n      and\n        /* \"campaign.sol\":1133:1154  msg.sender == manager */\n      0xffffffffffffffffffffffffffffffffffffffff\n      and\n        /* \"campaign.sol\":1133:1143  msg.sender */\n      caller\n        /* \"campaign.sol\":1133:1154  msg.sender == manager */\n      0xffffffffffffffffffffffffffffffffffffffff\n      and\n      eq\n        /* \"campaign.sol\":1125:1155  require(msg.sender == manager) */\n      tag_72\n      jumpi\n      0x00\n      dup1\n      revert\n    tag_72:\n        /* \"campaign.sol\":2419:2442  Request storage request */\n      0x00\n        /* \"campaign.sol\":2445:2453  requests */\n      0x05\n        /* \"campaign.sol\":2445:2460  requests[index] */\n      0x00\n        /* \"campaign.sol\":2454:2459  index */\n      dup4\n        /* \"campaign.sol\":2445:2460  requests[index] */\n      dup2\n      mstore\n      0x20\n      add\n      swap1\n      dup2\n      mstore\n      0x20\n      add\n      0x00\n      keccak256\n        /* \"campaign.sol\":2419:2460  Request storage request = requests[index] */\n      swap1\n      pop\n        /* \"campaign.sol\":2490:2497  request */\n      dup1\n        /* \"campaign.sol\":2490:2506  request.complete */\n      0x02\n      add\n      0x14\n      swap1\n      sload\n      swap1\n      0x0100\n      exp\n      swap1\n      div\n      0xff\n      and\n        /* \"campaign.sol\":2489:2506  !request.complete */\n      iszero\n        /* \"campaign.sol\":2481:2507  require(!request.complete) */\n      tag_74\n      jumpi\n      0x00\n      dup1\n      revert\n    tag_74:\n        /* \"campaign.sol\":2570:2571  2 */\n      0x02\n        /* \"campaign.sol\":2551:2567  contributorCount */\n      dup1\n      sload\n        /* \"campaign.sol\":2551:2571  contributorCount / 2 */\n      tag_75\n      swap2\n      swap1\n      tag_76\n      jump\t// in\n    tag_75:\n        /* \"campaign.sol\":2526:2533  request */\n      dup2\n        /* \"campaign.sol\":2526:2547  request.approvalCount */\n      0x03\n      add\n      sload\n        /* \"campaign.sol\":2526:2572  request.approvalCount > (contributorCount / 2) */\n      gt\n        /* \"campaign.sol\":2518:2573  require(request.approvalCount > (contributorCount / 2)) */\n      tag_77\n      jumpi\n      0x00\n      dup1\n      revert\n    tag_77:\n        /* \"campaign.sol\":2613:2617  true */\n      0x01\n        /* \"campaign.sol\":2594:2601  request */\n      dup2\n        /* \"campaign.sol\":2594:2610  request.complete */\n      0x02\n      add\n      0x14\n        /* \"campaign.sol\":2594:2617  request.complete = true */\n      0x0100\n      exp\n      dup2\n      sload\n      dup2\n      0xff\n      mul\n      not\n      and\n      swap1\n      dup4\n      iszero\n      iszero\n      mul\n      or\n      swap1\n      sstore\n      pop\n        /* \"campaign.sol\":2628:2635  request */\n      dup1\n        /* \"campaign.sol\":2628:2645  request.recipient */\n      0x02\n      add\n      0x00\n      swap1\n      sload\n      swap1\n      0x0100\n      exp\n      swap1\n      div\n      0xffffffffffffffffffffffffffffffffffffffff\n      and\n        /* \"campaign.sol\":2628:2654  request.recipient.transfer */\n      0xffffffffffffffffffffffffffffffffffffffff\n      and\n        /* \"campaign.sol\":2628:2669  request.recipient.transfer(request.value) */\n      0x08fc\n        /* \"campaign.sol\":2655:2662  request */\n      dup3\n        /* \"campaign.sol\":2655:2668  request.value */\n      0x01\n      add\n      sload\n        /* \"campaign.sol\":2628:2669  request.recipient.transfer(request.value) */\n      swap1\n      dup2\n      iszero\n      mul\n      swap1\n      mload(0x40)\n      0x00\n      mload(0x40)\n      dup1\n      dup4\n      sub\n      dup2\n      dup6\n      dup9\n      dup9\n      call\n      swap4\n      pop\n      pop\n      pop\n      pop\n      iszero\n      dup1\n      iszero\n      tag_79\n      jumpi\n      returndatasize\n      0x00\n      dup1\n      returndatacopy\n      revert(0x00, returndatasize)\n    tag_79:\n      pop\n        /* \"campaign.sol\":2408:2687  {... */\n      pop\n        /* \"campaign.sol\":2352:2687  function finalizeRequest(uint index) public onlyManager {... */\n      pop\n      jump\t// out\n        /* \"campaign.sol\":804:846  mapping(address =>  bool) public approvers */\n    tag_24:\n      mstore(0x20, 0x04)\n      dup1\n      0x00\n      mstore\n      keccak256(0x00, 0x40)\n      0x00\n      swap2\n      pop\n      sload\n      swap1\n      0x0100\n      exp\n      swap1\n      div\n      0xff\n      and\n      dup2\n      jump\t// out\n        /* \"campaign.sol\":1415:1871  function createRequests(string memory description, uint value, address payable recipient) ... */\n    tag_31:\n        /* \"campaign.sol\":1147:1154  manager */\n      0x00\n      dup1\n      sload\n      swap1\n      0x0100\n      exp\n      swap1\n      div\n      0xffffffffffffffffffffffffffffffffffffffff\n      and\n        /* \"campaign.sol\":1133:1154  msg.sender == manager */\n      0xffffffffffffffffffffffffffffffffffffffff\n      and\n        /* \"campaign.sol\":1133:1143  msg.sender */\n      caller\n        /* \"campaign.sol\":1133:1154  msg.sender == manager */\n      0xffffffffffffffffffffffffffffffffffffffff\n      and\n      eq\n        /* \"campaign.sol\":1125:1155  require(msg.sender == manager) */\n      tag_81\n      jumpi\n      0x00\n      dup1\n      revert\n    tag_81:\n        /* \"campaign.sol\":1558:1579  address(this).balance */\n      selfbalance\n        /* \"campaign.sol\":1549:1554  value */\n      dup3\n        /* \"campaign.sol\":1549:1579  value <= address(this).balance */\n      gt\n      iszero\n        /* \"campaign.sol\":1541:1580  require(value <= address(this).balance) */\n      tag_83\n      jumpi\n      0x00\n      dup1\n      revert\n    tag_83:\n        /* \"campaign.sol\":1591:1614  Request storage request */\n      0x00\n        /* \"campaign.sol\":1617:1625  requests */\n      0x05\n        /* \"campaign.sol\":1617:1639  requests[requestIndex] */\n      0x00\n        /* \"campaign.sol\":1626:1638  requestIndex */\n      sload(0x03)\n        /* \"campaign.sol\":1617:1639  requests[requestIndex] */\n      dup2\n      mstore\n      0x20\n      add\n      swap1\n      dup2\n      mstore\n      0x20\n      add\n      0x00\n      keccak256\n        /* \"campaign.sol\":1591:1639  Request storage request = requests[requestIndex] */\n      swap1\n      pop\n        /* \"campaign.sol\":1674:1685  description */\n      dup4\n        /* \"campaign.sol\":1652:1659  request */\n      dup2\n        /* \"campaign.sol\":1652:1671  request.description */\n      0x00\n      add\n        /* \"campaign.sol\":1652:1685  request.description = description */\n      swap1\n      dup1\n      mload\n      swap1\n      0x20\n      add\n      swap1\n      tag_84\n      swap3\n      swap2\n      swap1\n      tag_85\n      jump\t// in\n    tag_84:\n      pop\n        /* \"campaign.sol\":1716:1725  recipient */\n      dup2\n        /* \"campaign.sol\":1696:1703  request */\n      dup2\n        /* \"campaign.sol\":1696:1713  request.recipient */\n      0x02\n      add\n      0x00\n        /* \"campaign.sol\":1696:1725  request.recipient = recipient */\n      0x0100\n      exp\n      dup2\n      sload\n      dup2\n      0xffffffffffffffffffffffffffffffffffffffff\n      mul\n      not\n      and\n      swap1\n      dup4\n      0xffffffffffffffffffffffffffffffffffffffff\n      and\n      mul\n      or\n      swap1\n      sstore\n      pop\n        /* \"campaign.sol\":1752:1757  value */\n      dup3\n        /* \"campaign.sol\":1736:1743  request */\n      dup2\n        /* \"campaign.sol\":1736:1749  request.value */\n      0x01\n      add\n        /* \"campaign.sol\":1736:1757  request.value = value */\n      dup2\n      swap1\n      sstore\n      pop\n        /* \"campaign.sol\":1787:1792  false */\n      0x00\n        /* \"campaign.sol\":1768:1775  request */\n      dup2\n        /* \"campaign.sol\":1768:1784  request.complete */\n      0x02\n      add\n      0x14\n        /* \"campaign.sol\":1768:1792  request.complete = false */\n      0x0100\n      exp\n      dup2\n      sload\n      dup2\n      0xff\n      mul\n      not\n      and\n      swap1\n      dup4\n      iszero\n      iszero\n      mul\n      or\n      swap1\n      sstore\n      pop\n        /* \"campaign.sol\":1827:1828  0 */\n      0x00\n        /* \"campaign.sol\":1803:1810  request */\n      dup2\n        /* \"campaign.sol\":1803:1824  request.approvalCount */\n      0x03\n      add\n        /* \"campaign.sol\":1803:1828  request.approvalCount = 0 */\n      dup2\n      swap1\n      sstore\n      pop\n        /* \"campaign.sol\":1849:1861  requestIndex */\n      0x03\n      0x00\n        /* \"campaign.sol\":1849:1863  requestIndex++ */\n      dup2\n      sload\n      dup1\n      swap3\n      swap2\n      swap1\n      tag_86\n      swap1\n      tag_87\n      jump\t// in\n    tag_86:\n      swap2\n      swap1\n      pop\n      sstore\n      pop\n        /* \"campaign.sol\":1530:1871  {... */\n      pop\n        /* \"campaign.sol\":1415:1871  function createRequests(string memory description, uint value, address payable recipient) ... */\n      pop\n      pop\n      pop\n      jump\t// out\n        /* \"campaign.sol\":2962:3055  function getRequestsCount() public view returns (uint) {... */\n    tag_34:\n        /* \"campaign.sol\":3011:3015  uint */\n      0x00\n        /* \"campaign.sol\":3035:3047  requestIndex */\n      sload(0x03)\n        /* \"campaign.sol\":3028:3047  return requestIndex */\n      swap1\n      pop\n        /* \"campaign.sol\":2962:3055  function getRequestsCount() public view returns (uint) {... */\n      swap1\n      jump\t// out\n        /* \"campaign.sol\":2695:2954  function getSummary() public view returns (uint, uint, uint, uint, address) {... */\n    tag_39:\n        /* \"campaign.sol\":2738:2742  uint */\n      0x00\n        /* \"campaign.sol\":2744:2748  uint */\n      dup1\n        /* \"campaign.sol\":2750:2754  uint */\n      0x00\n        /* \"campaign.sol\":2756:2760  uint */\n      dup1\n        /* \"campaign.sol\":2762:2769  address */\n      0x00\n        /* \"campaign.sol\":2804:2819  minContribution */\n      sload(0x01)\n        /* \"campaign.sol\":2834:2855  address(this).balance */\n      selfbalance\n        /* \"campaign.sol\":2870:2882  requestIndex */\n      sload(0x03)\n        /* \"campaign.sol\":2897:2913  contributorCount */\n      sload(0x02)\n        /* \"campaign.sol\":2928:2935  manager */\n      0x00\n      dup1\n      sload\n      swap1\n      0x0100\n      exp\n      swap1\n      div\n      0xffffffffffffffffffffffffffffffffffffffff\n      and\n        /* \"campaign.sol\":2782:2946  return (... */\n      swap5\n      pop\n      swap5\n      pop\n      swap5\n      pop\n      swap5\n      pop\n      swap5\n      pop\n        /* \"campaign.sol\":2695:2954  function getSummary() public view returns (uint, uint, uint, uint, address) {... */\n      swap1\n      swap2\n      swap3\n      swap4\n      swap5\n      jump\t// out\n        /* \"campaign.sol\":771:795  uint public requestIndex */\n    tag_44:\n      sload(0x03)\n      dup2\n      jump\t// out\n        /* \"campaign.sol\":673:695  address public manager */\n    tag_48:\n      0x00\n      dup1\n      sload\n      swap1\n      0x0100\n      exp\n      swap1\n      div\n      0xffffffffffffffffffffffffffffffffffffffff\n      and\n      dup2\n      jump\t// out\n        /* \"campaign.sol\":853:893  mapping(uint => Request) public requests */\n    tag_54:\n      mstore(0x20, 0x05)\n      dup1\n      0x00\n      mstore\n      keccak256(0x00, 0x40)\n      0x00\n      swap2\n      pop\n      swap1\n      pop\n      dup1\n      0x00\n      add\n      dup1\n      sload\n      tag_90\n      swap1\n      tag_91\n      jump\t// in\n    tag_90:\n      dup1\n      0x1f\n      add\n      0x20\n      dup1\n      swap2\n      div\n      mul\n      0x20\n      add\n      mload(0x40)\n      swap1\n      dup2\n      add\n      0x40\n      mstore\n      dup1\n      swap3\n      swap2\n      swap1\n      dup2\n      dup2\n      mstore\n      0x20\n      add\n      dup3\n      dup1\n      sload\n      tag_92\n      swap1\n      tag_91\n      jump\t// in\n    tag_92:\n      dup1\n      iszero\n      tag_93\n      jumpi\n      dup1\n      0x1f\n      lt\n      tag_94\n      jumpi\n      0x0100\n      dup1\n      dup4\n      sload\n      div\n      mul\n      dup4\n      mstore\n      swap2\n      0x20\n      add\n      swap2\n      jump(tag_93)\n    tag_94:\n      dup3\n      add\n      swap2\n      swap1\n      0x00\n      mstore\n      keccak256(0x00, 0x20)\n      swap1\n    tag_95:\n      dup2\n      sload\n      dup2\n      mstore\n      swap1\n      0x01\n      add\n      swap1\n      0x20\n      add\n      dup1\n      dup4\n      gt\n      tag_95\n      jumpi\n      dup3\n      swap1\n      sub\n      0x1f\n      and\n      dup3\n      add\n      swap2\n    tag_93:\n      pop\n      pop\n      pop\n      pop\n      pop\n      swap1\n      dup1\n      0x01\n      add\n      sload\n      swap1\n      dup1\n      0x02\n      add\n      0x00\n      swap1\n      sload\n      swap1\n      0x0100\n      exp\n      swap1\n      div\n      0xffffffffffffffffffffffffffffffffffffffff\n      and\n      swap1\n      dup1\n      0x02\n      add\n      0x14\n      swap1\n      sload\n      swap1\n      0x0100\n      exp\n      swap1\n      div\n      0xff\n      and\n      swap1\n      dup1\n      0x03\n      add\n      sload\n      swap1\n      pop\n      dup6\n      jump\t// out\n        /* \"campaign.sol\":702:729  uint public minContribution */\n    tag_59:\n      sload(0x01)\n      dup2\n      jump\t// out\n        /* \"campaign.sol\":1183:1407  function contribute() public payable {... */\n    tag_62:\n        /* \"campaign.sol\":1251:1266  minContribution */\n      sload(0x01)\n        /* \"campaign.sol\":1239:1248  msg.value */\n      callvalue\n        /* \"campaign.sol\":1239:1266  msg.value > minContribution */\n      gt\n        /* \"campaign.sol\":1231:1267  require(msg.value > minContribution) */\n      tag_97\n      jumpi\n      0x00\n      dup1\n      revert\n    tag_97:\n        /* \"campaign.sol\":1289:1298  approvers */\n      0x04\n        /* \"campaign.sol\":1289:1310  approvers[msg.sender] */\n      0x00\n        /* \"campaign.sol\":1299:1309  msg.sender */\n      caller\n        /* \"campaign.sol\":1289:1310  approvers[msg.sender] */\n      0xffffffffffffffffffffffffffffffffffffffff\n      and\n      0xffffffffffffffffffffffffffffffffffffffff\n      and\n      dup2\n      mstore\n      0x20\n      add\n      swap1\n      dup2\n      mstore\n      0x20\n      add\n      0x00\n      keccak256\n      0x00\n      swap1\n      sload\n      swap1\n      0x0100\n      exp\n      swap1\n      div\n      0xff\n      and\n        /* \"campaign.sol\":1284:1400  if (!approvers[msg.sender]) {... */\n      tag_98\n      jumpi\n        /* \"campaign.sol\":1351:1355  true */\n      0x01\n        /* \"campaign.sol\":1327:1336  approvers */\n      0x04\n        /* \"campaign.sol\":1327:1348  approvers[msg.sender] */\n      0x00\n        /* \"campaign.sol\":1337:1347  msg.sender */\n      caller\n        /* \"campaign.sol\":1327:1348  approvers[msg.sender] */\n      0xffffffffffffffffffffffffffffffffffffffff\n      and\n      0xffffffffffffffffffffffffffffffffffffffff\n      and\n      dup2\n      mstore\n      0x20\n      add\n      swap1\n      dup2\n      mstore\n      0x20\n      add\n      0x00\n      keccak256\n      0x00\n        /* \"campaign.sol\":1327:1355  approvers[msg.sender] = true */\n      0x0100\n      exp\n      dup2\n      sload\n      dup2\n      0xff\n      mul\n      not\n      and\n      swap1\n      dup4\n      iszero\n      iszero\n      mul\n      or\n      swap1\n      sstore\n      pop\n        /* \"campaign.sol\":1370:1386  contributorCount */\n      0x02\n      0x00\n        /* \"campaign.sol\":1370:1388  contributorCount++ */\n      dup2\n      sload\n      dup1\n      swap3\n      swap2\n      swap1\n      tag_99\n      swap1\n      tag_87\n      jump\t// in\n    tag_99:\n      swap2\n      swap1\n      pop\n      sstore\n      pop\n        /* \"campaign.sol\":1284:1400  if (!approvers[msg.sender]) {... */\n    tag_98:\n        /* \"campaign.sol\":1183:1407  function contribute() public payable {... */\n      jump\t// out\n        /* \"campaign.sol\":1879:2344  function approveRequest(uint index) public {... */\n    tag_66:\n        /* \"campaign.sol\":1933:1956  Request storage request */\n      0x00\n        /* \"campaign.sol\":1959:1967  requests */\n      0x05\n        /* \"campaign.sol\":1959:1974  requests[index] */\n      0x00\n        /* \"campaign.sol\":1968:1973  index */\n      dup4\n        /* \"campaign.sol\":1959:1974  requests[index] */\n      dup2\n      mstore\n      0x20\n      add\n      swap1\n      dup2\n      mstore\n      0x20\n      add\n      0x00\n      keccak256\n        /* \"campaign.sol\":1933:1974  Request storage request = requests[index] */\n      swap1\n      pop\n        /* \"campaign.sol\":2020:2021  0 */\n      0x00\n        /* \"campaign.sol\":2003:2010  request */\n      dup2\n        /* \"campaign.sol\":2003:2016  request.value */\n      0x01\n      add\n      sload\n        /* \"campaign.sol\":2003:2021  request.value != 0 */\n      sub\n        /* \"campaign.sol\":1995:2022  require(request.value != 0) */\n      tag_101\n      jumpi\n      0x00\n      dup1\n      revert\n    tag_101:\n        /* \"campaign.sol\":2074:2081  request */\n      dup1\n        /* \"campaign.sol\":2074:2090  request.complete */\n      0x02\n      add\n      0x14\n      swap1\n      sload\n      swap1\n      0x0100\n      exp\n      swap1\n      div\n      0xff\n      and\n        /* \"campaign.sol\":2073:2090  !request.complete */\n      iszero\n        /* \"campaign.sol\":2065:2091  require(!request.complete) */\n      tag_102\n      jumpi\n      0x00\n      dup1\n      revert\n    tag_102:\n        /* \"campaign.sol\":2111:2120  approvers */\n      0x04\n        /* \"campaign.sol\":2111:2132  approvers[msg.sender] */\n      0x00\n        /* \"campaign.sol\":2121:2131  msg.sender */\n      caller\n        /* \"campaign.sol\":2111:2132  approvers[msg.sender] */\n      0xffffffffffffffffffffffffffffffffffffffff\n      and\n      0xffffffffffffffffffffffffffffffffffffffff\n      and\n      dup2\n      mstore\n      0x20\n      add\n      swap1\n      dup2\n      mstore\n      0x20\n      add\n      0x00\n      keccak256\n      0x00\n      swap1\n      sload\n      swap1\n      0x0100\n      exp\n      swap1\n      div\n      0xff\n      and\n        /* \"campaign.sol\":2103:2133  require(approvers[msg.sender]) */\n      tag_103\n      jumpi\n      0x00\n      dup1\n      revert\n    tag_103:\n        /* \"campaign.sol\":2220:2225  false */\n      0x00\n        /* \"campaign.sol\":2187:2225  request.approvals[msg.sender] == false */\n      iszero\n      iszero\n        /* \"campaign.sol\":2187:2194  request */\n      dup2\n        /* \"campaign.sol\":2187:2204  request.approvals */\n      0x04\n      add\n        /* \"campaign.sol\":2187:2216  request.approvals[msg.sender] */\n      0x00\n        /* \"campaign.sol\":2205:2215  msg.sender */\n      caller\n        /* \"campaign.sol\":2187:2216  request.approvals[msg.sender] */\n      0xffffffffffffffffffffffffffffffffffffffff\n      and\n      0xffffffffffffffffffffffffffffffffffffffff\n      and\n      dup2\n      mstore\n      0x20\n      add\n      swap1\n      dup2\n      mstore\n      0x20\n      add\n      0x00\n      keccak256\n      0x00\n      swap1\n      sload\n      swap1\n      0x0100\n      exp\n      swap1\n      div\n      0xff\n      and\n        /* \"campaign.sol\":2187:2225  request.approvals[msg.sender] == false */\n      iszero\n      iszero\n      eq\n        /* \"campaign.sol\":2179:2226  require(request.approvals[msg.sender] == false) */\n      tag_104\n      jumpi\n      0x00\n      dup1\n      revert\n    tag_104:\n        /* \"campaign.sol\":2298:2302  true */\n      0x01\n        /* \"campaign.sol\":2266:2273  request */\n      dup2\n        /* \"campaign.sol\":2266:2283  request.approvals */\n      0x04\n      add\n        /* \"campaign.sol\":2266:2295  request.approvals[msg.sender] */\n      0x00\n        /* \"campaign.sol\":2284:2294  msg.sender */\n      caller\n        /* \"campaign.sol\":2266:2295  request.approvals[msg.sender] */\n      0xffffffffffffffffffffffffffffffffffffffff\n      and\n      0xffffffffffffffffffffffffffffffffffffffff\n      and\n      dup2\n      mstore\n      0x20\n      add\n      swap1\n      dup2\n      mstore\n      0x20\n      add\n      0x00\n      keccak256\n      0x00\n        /* \"campaign.sol\":2266:2302  request.approvals[msg.sender] = true */\n      0x0100\n      exp\n      dup2\n      sload\n      dup2\n      0xff\n      mul\n      not\n      and\n      swap1\n      dup4\n      iszero\n      iszero\n      mul\n      or\n      swap1\n      sstore\n      pop\n        /* \"campaign.sol\":2313:2320  request */\n      dup1\n        /* \"campaign.sol\":2313:2334  request.approvalCount */\n      0x03\n      add\n      0x00\n        /* \"campaign.sol\":2313:2336  request.approvalCount++ */\n      dup2\n      sload\n      dup1\n      swap3\n      swap2\n      swap1\n      tag_105\n      swap1\n      tag_87\n      jump\t// in\n    tag_105:\n      swap2\n      swap1\n      pop\n      sstore\n      pop\n        /* \"campaign.sol\":1922:2344  {... */\n      pop\n        /* \"campaign.sol\":1879:2344  function approveRequest(uint index) public {... */\n      pop\n      jump\t// out\n        /* \"campaign.sol\":736:764  uint public contributorCount */\n    tag_69:\n      sload(0x02)\n      dup2\n      jump\t// out\n    tag_85:\n      dup3\n      dup1\n      sload\n      tag_106\n      swap1\n      tag_91\n      jump\t// in\n    tag_106:\n      swap1\n      0x00\n      mstore\n      keccak256(0x00, 0x20)\n      swap1\n      0x1f\n      add\n      0x20\n      swap1\n      div\n      dup2\n      add\n      swap3\n      dup3\n      tag_108\n      jumpi\n      0x00\n      dup6\n      sstore\n      jump(tag_107)\n    tag_108:\n      dup3\n      0x1f\n      lt\n      tag_109\n      jumpi\n      dup1\n      mload\n      not(0xff)\n      and\n      dup4\n      dup1\n      add\n      or\n      dup6\n      sstore\n      jump(tag_107)\n    tag_109:\n      dup3\n      dup1\n      add\n      0x01\n      add\n      dup6\n      sstore\n      dup3\n      iszero\n      tag_107\n      jumpi\n      swap2\n      dup3\n      add\n    tag_110:\n      dup3\n      dup2\n      gt\n      iszero\n      tag_111\n      jumpi\n      dup3\n      mload\n      dup3\n      sstore\n      swap2\n      0x20\n      add\n      swap2\n      swap1\n      0x01\n      add\n      swap1\n      jump(tag_110)\n    tag_111:\n    tag_107:\n      pop\n      swap1\n      pop\n      tag_112\n      swap2\n      swap1\n      tag_113\n      jump\t// in\n    tag_112:\n      pop\n      swap1\n      jump\t// out\n    tag_113:\n    tag_114:\n      dup1\n      dup3\n      gt\n      iszero\n      tag_115\n      jumpi\n      0x00\n      dup2\n      0x00\n      swap1\n      sstore\n      pop\n      0x01\n      add\n      jump(tag_114)\n    tag_115:\n      pop\n      swap1\n      jump\t// out\n        /* \"#utility.yul\":7:82   */\n    tag_116:\n        /* \"#utility.yul\":40:46   */\n      0x00\n        /* \"#utility.yul\":73:75   */\n      0x40\n        /* \"#utility.yul\":67:76   */\n      mload\n        /* \"#utility.yul\":57:76   */\n      swap1\n      pop\n        /* \"#utility.yul\":7:82   */\n      swap1\n      jump\t// out\n        /* \"#utility.yul\":88:205   */\n    tag_117:\n        /* \"#utility.yul\":197:198   */\n      0x00\n        /* \"#utility.yul\":194:195   */\n      dup1\n        /* \"#utility.yul\":187:199   */\n      revert\n        /* \"#utility.yul\":211:328   */\n    tag_118:\n        /* \"#utility.yul\":320:321   */\n      0x00\n        /* \"#utility.yul\":317:318   */\n      dup1\n        /* \"#utility.yul\":310:322   */\n      revert\n        /* \"#utility.yul\":334:411   */\n    tag_119:\n        /* \"#utility.yul\":371:378   */\n      0x00\n        /* \"#utility.yul\":400:405   */\n      dup2\n        /* \"#utility.yul\":389:405   */\n      swap1\n      pop\n        /* \"#utility.yul\":334:411   */\n      swap2\n      swap1\n      pop\n      jump\t// out\n        /* \"#utility.yul\":417:539   */\n    tag_120:\n        /* \"#utility.yul\":490:514   */\n      tag_157\n        /* \"#utility.yul\":508:513   */\n      dup2\n        /* \"#utility.yul\":490:514   */\n      tag_119\n      jump\t// in\n    tag_157:\n        /* \"#utility.yul\":483:488   */\n      dup2\n        /* \"#utility.yul\":480:515   */\n      eq\n        /* \"#utility.yul\":470:533   */\n      tag_158\n      jumpi\n        /* \"#utility.yul\":529:530   */\n      0x00\n        /* \"#utility.yul\":526:527   */\n      dup1\n        /* \"#utility.yul\":519:531   */\n      revert\n        /* \"#utility.yul\":470:533   */\n    tag_158:\n        /* \"#utility.yul\":417:539   */\n      pop\n      jump\t// out\n        /* \"#utility.yul\":545:684   */\n    tag_121:\n        /* \"#utility.yul\":591:596   */\n      0x00\n        /* \"#utility.yul\":629:635   */\n      dup2\n        /* \"#utility.yul\":616:636   */\n      calldataload\n        /* \"#utility.yul\":607:636   */\n      swap1\n      pop\n        /* \"#utility.yul\":645:678   */\n      tag_160\n        /* \"#utility.yul\":672:677   */\n      dup2\n        /* \"#utility.yul\":645:678   */\n      tag_120\n      jump\t// in\n    tag_160:\n        /* \"#utility.yul\":545:684   */\n      swap3\n      swap2\n      pop\n      pop\n      jump\t// out\n        /* \"#utility.yul\":690:1019   */\n    tag_18:\n        /* \"#utility.yul\":749:755   */\n      0x00\n        /* \"#utility.yul\":798:800   */\n      0x20\n        /* \"#utility.yul\":786:795   */\n      dup3\n        /* \"#utility.yul\":777:784   */\n      dup5\n        /* \"#utility.yul\":773:796   */\n      sub\n        /* \"#utility.yul\":769:801   */\n      slt\n        /* \"#utility.yul\":766:885   */\n      iszero\n      tag_162\n      jumpi\n        /* \"#utility.yul\":804:883   */\n      tag_163\n      tag_117\n      jump\t// in\n    tag_163:\n        /* \"#utility.yul\":766:885   */\n    tag_162:\n        /* \"#utility.yul\":924:925   */\n      0x00\n        /* \"#utility.yul\":949:1002   */\n      tag_164\n        /* \"#utility.yul\":994:1001   */\n      dup5\n        /* \"#utility.yul\":985:991   */\n      dup3\n        /* \"#utility.yul\":974:983   */\n      dup6\n        /* \"#utility.yul\":970:992   */\n      add\n        /* \"#utility.yul\":949:1002   */\n      tag_121\n      jump\t// in\n    tag_164:\n        /* \"#utility.yul\":939:1002   */\n      swap2\n      pop\n        /* \"#utility.yul\":895:1012   */\n      pop\n        /* \"#utility.yul\":690:1019   */\n      swap3\n      swap2\n      pop\n      pop\n      jump\t// out\n        /* \"#utility.yul\":1025:1151   */\n    tag_122:\n        /* \"#utility.yul\":1062:1069   */\n      0x00\n        /* \"#utility.yul\":1102:1144   */\n      0xffffffffffffffffffffffffffffffffffffffff\n        /* \"#utility.yul\":1095:1100   */\n      dup3\n        /* \"#utility.yul\":1091:1145   */\n      and\n        /* \"#utility.yul\":1080:1145   */\n      swap1\n      pop\n        /* \"#utility.yul\":1025:1151   */\n      swap2\n      swap1\n      pop\n      jump\t// out\n        /* \"#utility.yul\":1157:1253   */\n    tag_123:\n        /* \"#utility.yul\":1194:1201   */\n      0x00\n        /* \"#utility.yul\":1223:1247   */\n      tag_167\n        /* \"#utility.yul\":1241:1246   */\n      dup3\n        /* \"#utility.yul\":1223:1247   */\n      tag_122\n      jump\t// in\n    tag_167:\n        /* \"#utility.yul\":1212:1247   */\n      swap1\n      pop\n        /* \"#utility.yul\":1157:1253   */\n      swap2\n      swap1\n      pop\n      jump\t// out\n        /* \"#utility.yul\":1259:1381   */\n    tag_124:\n        /* \"#utility.yul\":1332:1356   */\n      tag_169\n        /* \"#utility.yul\":1350:1355   */\n      dup2\n        /* \"#utility.yul\":1332:1356   */\n      tag_123\n      jump\t// in\n    tag_169:\n        /* \"#utility.yul\":1325:1330   */\n      dup2\n        /* \"#utility.yul\":1322:1357   */\n      eq\n        /* \"#utility.yul\":1312:1375   */\n      tag_170\n      jumpi\n        /* \"#utility.yul\":1371:1372   */\n      0x00\n        /* \"#utility.yul\":1368:1369   */\n      dup1\n        /* \"#utility.yul\":1361:1373   */\n      revert\n        /* \"#utility.yul\":1312:1375   */\n    tag_170:\n        /* \"#utility.yul\":1259:1381   */\n      pop\n      jump\t// out\n        /* \"#utility.yul\":1387:1526   */\n    tag_125:\n        /* \"#utility.yul\":1433:1438   */\n      0x00\n        /* \"#utility.yul\":1471:1477   */\n      dup2\n        /* \"#utility.yul\":1458:1478   */\n      calldataload\n        /* \"#utility.yul\":1449:1478   */\n      swap1\n      pop\n        /* \"#utility.yul\":1487:1520   */\n      tag_172\n        /* \"#utility.yul\":1514:1519   */\n      dup2\n        /* \"#utility.yul\":1487:1520   */\n      tag_124\n      jump\t// in\n    tag_172:\n        /* \"#utility.yul\":1387:1526   */\n      swap3\n      swap2\n      pop\n      pop\n      jump\t// out\n        /* \"#utility.yul\":1532:1861   */\n    tag_23:\n        /* \"#utility.yul\":1591:1597   */\n      0x00\n        /* \"#utility.yul\":1640:1642   */\n      0x20\n        /* \"#utility.yul\":1628:1637   */\n      dup3\n        /* \"#utility.yul\":1619:1626   */\n      dup5\n        /* \"#utility.yul\":1615:1638   */\n      sub\n        /* \"#utility.yul\":1611:1643   */\n      slt\n        /* \"#utility.yul\":1608:1727   */\n      iszero\n      tag_174\n      jumpi\n        /* \"#utility.yul\":1646:1725   */\n      tag_175\n      tag_117\n      jump\t// in\n    tag_175:\n        /* \"#utility.yul\":1608:1727   */\n    tag_174:\n        /* \"#utility.yul\":1766:1767   */\n      0x00\n        /* \"#utility.yul\":1791:1844   */\n      tag_176\n        /* \"#utility.yul\":1836:1843   */\n      dup5\n        /* \"#utility.yul\":1827:1833   */\n      dup3\n        /* \"#utility.yul\":1816:1825   */\n      dup6\n        /* \"#utility.yul\":1812:1834   */\n      add\n        /* \"#utility.yul\":1791:1844   */\n      tag_125\n      jump\t// in\n    tag_176:\n        /* \"#utility.yul\":1781:1844   */\n      swap2\n      pop\n        /* \"#utility.yul\":1737:1854   */\n      pop\n        /* \"#utility.yul\":1532:1861   */\n      swap3\n      swap2\n      pop\n      pop\n      jump\t// out\n        /* \"#utility.yul\":1867:1957   */\n    tag_126:\n        /* \"#utility.yul\":1901:1908   */\n      0x00\n        /* \"#utility.yul\":1944:1949   */\n      dup2\n        /* \"#utility.yul\":1937:1950   */\n      iszero\n        /* \"#utility.yul\":1930:1951   */\n      iszero\n        /* \"#utility.yul\":1919:1951   */\n      swap1\n      pop\n        /* \"#utility.yul\":1867:1957   */\n      swap2\n      swap1\n      pop\n      jump\t// out\n        /* \"#utility.yul\":1963:2072   */\n    tag_127:\n        /* \"#utility.yul\":2044:2065   */\n      tag_179\n        /* \"#utility.yul\":2059:2064   */\n      dup2\n        /* \"#utility.yul\":2044:2065   */\n      tag_126\n      jump\t// in\n    tag_179:\n        /* \"#utility.yul\":2039:2042   */\n      dup3\n        /* \"#utility.yul\":2032:2066   */\n      mstore\n        /* \"#utility.yul\":1963:2072   */\n      pop\n      pop\n      jump\t// out\n        /* \"#utility.yul\":2078:2288   */\n    tag_26:\n        /* \"#utility.yul\":2165:2169   */\n      0x00\n        /* \"#utility.yul\":2203:2205   */\n      0x20\n        /* \"#utility.yul\":2192:2201   */\n      dup3\n        /* \"#utility.yul\":2188:2206   */\n      add\n        /* \"#utility.yul\":2180:2206   */\n      swap1\n      pop\n        /* \"#utility.yul\":2216:2281   */\n      tag_181\n        /* \"#utility.yul\":2278:2279   */\n      0x00\n        /* \"#utility.yul\":2267:2276   */\n      dup4\n        /* \"#utility.yul\":2263:2280   */\n      add\n        /* \"#utility.yul\":2254:2260   */\n      dup5\n        /* \"#utility.yul\":2216:2281   */\n      tag_127\n      jump\t// in\n    tag_181:\n        /* \"#utility.yul\":2078:2288   */\n      swap3\n      swap2\n      pop\n      pop\n      jump\t// out\n        /* \"#utility.yul\":2294:2411   */\n    tag_128:\n        /* \"#utility.yul\":2403:2404   */\n      0x00\n        /* \"#utility.yul\":2400:2401   */\n      dup1\n        /* \"#utility.yul\":2393:2405   */\n      revert\n        /* \"#utility.yul\":2417:2534   */\n    tag_129:\n        /* \"#utility.yul\":2526:2527   */\n      0x00\n        /* \"#utility.yul\":2523:2524   */\n      dup1\n        /* \"#utility.yul\":2516:2528   */\n      revert\n        /* \"#utility.yul\":2540:2642   */\n    tag_130:\n        /* \"#utility.yul\":2581:2587   */\n      0x00\n        /* \"#utility.yul\":2632:2634   */\n      0x1f\n        /* \"#utility.yul\":2628:2635   */\n      not\n        /* \"#utility.yul\":2623:2625   */\n      0x1f\n        /* \"#utility.yul\":2616:2621   */\n      dup4\n        /* \"#utility.yul\":2612:2626   */\n      add\n        /* \"#utility.yul\":2608:2636   */\n      and\n        /* \"#utility.yul\":2598:2636   */\n      swap1\n      pop\n        /* \"#utility.yul\":2540:2642   */\n      swap2\n      swap1\n      pop\n      jump\t// out\n        /* \"#utility.yul\":2648:2828   */\n    tag_131:\n        /* \"#utility.yul\":2696:2773   */\n      0x4e487b7100000000000000000000000000000000000000000000000000000000\n        /* \"#utility.yul\":2693:2694   */\n      0x00\n        /* \"#utility.yul\":2686:2774   */\n      mstore\n        /* \"#utility.yul\":2793:2797   */\n      0x41\n        /* \"#utility.yul\":2790:2791   */\n      0x04\n        /* \"#utility.yul\":2783:2798   */\n      mstore\n        /* \"#utility.yul\":2817:2821   */\n      0x24\n        /* \"#utility.yul\":2814:2815   */\n      0x00\n        /* \"#utility.yul\":2807:2822   */\n      revert\n        /* \"#utility.yul\":2834:3115   */\n    tag_132:\n        /* \"#utility.yul\":2917:2944   */\n      tag_187\n        /* \"#utility.yul\":2939:2943   */\n      dup3\n        /* \"#utility.yul\":2917:2944   */\n      tag_130\n      jump\t// in\n    tag_187:\n        /* \"#utility.yul\":2909:2915   */\n      dup2\n        /* \"#utility.yul\":2905:2945   */\n      add\n        /* \"#utility.yul\":3047:3053   */\n      dup2\n        /* \"#utility.yul\":3035:3045   */\n      dup2\n        /* \"#utility.yul\":3032:3054   */\n      lt\n        /* \"#utility.yul\":3011:3029   */\n      0xffffffffffffffff\n        /* \"#utility.yul\":2999:3009   */\n      dup3\n        /* \"#utility.yul\":2996:3030   */\n      gt\n        /* \"#utility.yul\":2993:3055   */\n      or\n        /* \"#utility.yul\":2990:3078   */\n      iszero\n      tag_188\n      jumpi\n        /* \"#utility.yul\":3058:3076   */\n      tag_189\n      tag_131\n      jump\t// in\n    tag_189:\n        /* \"#utility.yul\":2990:3078   */\n    tag_188:\n        /* \"#utility.yul\":3098:3108   */\n      dup1\n        /* \"#utility.yul\":3094:3096   */\n      0x40\n        /* \"#utility.yul\":3087:3109   */\n      mstore\n        /* \"#utility.yul\":2877:3115   */\n      pop\n        /* \"#utility.yul\":2834:3115   */\n      pop\n      pop\n      jump\t// out\n        /* \"#utility.yul\":3121:3250   */\n    tag_133:\n        /* \"#utility.yul\":3155:3161   */\n      0x00\n        /* \"#utility.yul\":3182:3202   */\n      tag_191\n      tag_116\n      jump\t// in\n    tag_191:\n        /* \"#utility.yul\":3172:3202   */\n      swap1\n      pop\n        /* \"#utility.yul\":3211:3244   */\n      tag_192\n        /* \"#utility.yul\":3239:3243   */\n      dup3\n        /* \"#utility.yul\":3231:3237   */\n      dup3\n        /* \"#utility.yul\":3211:3244   */\n      tag_132\n      jump\t// in\n    tag_192:\n        /* \"#utility.yul\":3121:3250   */\n      swap2\n      swap1\n      pop\n      jump\t// out\n        /* \"#utility.yul\":3256:3564   */\n    tag_134:\n        /* \"#utility.yul\":3318:3322   */\n      0x00\n        /* \"#utility.yul\":3408:3426   */\n      0xffffffffffffffff\n        /* \"#utility.yul\":3400:3406   */\n      dup3\n        /* \"#utility.yul\":3397:3427   */\n      gt\n        /* \"#utility.yul\":3394:3450   */\n      iszero\n      tag_194\n      jumpi\n        /* \"#utility.yul\":3430:3448   */\n      tag_195\n      tag_131\n      jump\t// in\n    tag_195:\n        /* \"#utility.yul\":3394:3450   */\n    tag_194:\n        /* \"#utility.yul\":3468:3497   */\n      tag_196\n        /* \"#utility.yul\":3490:3496   */\n      dup3\n        /* \"#utility.yul\":3468:3497   */\n      tag_130\n      jump\t// in\n    tag_196:\n        /* \"#utility.yul\":3460:3497   */\n      swap1\n      pop\n        /* \"#utility.yul\":3552:3556   */\n      0x20\n        /* \"#utility.yul\":3546:3550   */\n      dup2\n        /* \"#utility.yul\":3542:3557   */\n      add\n        /* \"#utility.yul\":3534:3557   */\n      swap1\n      pop\n        /* \"#utility.yul\":3256:3564   */\n      swap2\n      swap1\n      pop\n      jump\t// out\n        /* \"#utility.yul\":3570:3724   */\n    tag_135:\n        /* \"#utility.yul\":3654:3660   */\n      dup3\n        /* \"#utility.yul\":3649:3652   */\n      dup2\n        /* \"#utility.yul\":3644:3647   */\n      dup4\n        /* \"#utility.yul\":3631:3661   */\n      calldatacopy\n        /* \"#utility.yul\":3716:3717   */\n      0x00\n        /* \"#utility.yul\":3707:3713   */\n      dup4\n        /* \"#utility.yul\":3702:3705   */\n      dup4\n        /* \"#utility.yul\":3698:3714   */\n      add\n        /* \"#utility.yul\":3691:3718   */\n      mstore\n        /* \"#utility.yul\":3570:3724   */\n      pop\n      pop\n      pop\n      jump\t// out\n        /* \"#utility.yul\":3730:4142   */\n    tag_136:\n        /* \"#utility.yul\":3808:3813   */\n      0x00\n        /* \"#utility.yul\":3833:3899   */\n      tag_199\n        /* \"#utility.yul\":3849:3898   */\n      tag_200\n        /* \"#utility.yul\":3891:3897   */\n      dup5\n        /* \"#utility.yul\":3849:3898   */\n      tag_134\n      jump\t// in\n    tag_200:\n        /* \"#utility.yul\":3833:3899   */\n      tag_133\n      jump\t// in\n    tag_199:\n        /* \"#utility.yul\":3824:3899   */\n      swap1\n      pop\n        /* \"#utility.yul\":3922:3928   */\n      dup3\n        /* \"#utility.yul\":3915:3920   */\n      dup2\n        /* \"#utility.yul\":3908:3929   */\n      mstore\n        /* \"#utility.yul\":3960:3964   */\n      0x20\n        /* \"#utility.yul\":3953:3958   */\n      dup2\n        /* \"#utility.yul\":3949:3965   */\n      add\n        /* \"#utility.yul\":3998:4001   */\n      dup5\n        /* \"#utility.yul\":3989:3995   */\n      dup5\n        /* \"#utility.yul\":3984:3987   */\n      dup5\n        /* \"#utility.yul\":3980:3996   */\n      add\n        /* \"#utility.yul\":3977:4002   */\n      gt\n        /* \"#utility.yul\":3974:4086   */\n      iszero\n      tag_201\n      jumpi\n        /* \"#utility.yul\":4005:4084   */\n      tag_202\n      tag_129\n      jump\t// in\n    tag_202:\n        /* \"#utility.yul\":3974:4086   */\n    tag_201:\n        /* \"#utility.yul\":4095:4136   */\n      tag_203\n        /* \"#utility.yul\":4129:4135   */\n      dup5\n        /* \"#utility.yul\":4124:4127   */\n      dup3\n        /* \"#utility.yul\":4119:4122   */\n      dup6\n        /* \"#utility.yul\":4095:4136   */\n      tag_135\n      jump\t// in\n    tag_203:\n        /* \"#utility.yul\":3814:4142   */\n      pop\n        /* \"#utility.yul\":3730:4142   */\n      swap4\n      swap3\n      pop\n      pop\n      pop\n      jump\t// out\n        /* \"#utility.yul\":4162:4502   */\n    tag_137:\n        /* \"#utility.yul\":4218:4223   */\n      0x00\n        /* \"#utility.yul\":4267:4270   */\n      dup3\n        /* \"#utility.yul\":4260:4264   */\n      0x1f\n        /* \"#utility.yul\":4252:4258   */\n      dup4\n        /* \"#utility.yul\":4248:4265   */\n      add\n        /* \"#utility.yul\":4244:4271   */\n      slt\n        /* \"#utility.yul\":4234:4356   */\n      tag_205\n      jumpi\n        /* \"#utility.yul\":4275:4354   */\n      tag_206\n      tag_128\n      jump\t// in\n    tag_206:\n        /* \"#utility.yul\":4234:4356   */\n    tag_205:\n        /* \"#utility.yul\":4392:4398   */\n      dup2\n        /* \"#utility.yul\":4379:4399   */\n      calldataload\n        /* \"#utility.yul\":4417:4496   */\n      tag_207\n        /* \"#utility.yul\":4492:4495   */\n      dup5\n        /* \"#utility.yul\":4484:4490   */\n      dup3\n        /* \"#utility.yul\":4477:4481   */\n      0x20\n        /* \"#utility.yul\":4469:4475   */\n      dup7\n        /* \"#utility.yul\":4465:4482   */\n      add\n        /* \"#utility.yul\":4417:4496   */\n      tag_136\n      jump\t// in\n    tag_207:\n        /* \"#utility.yul\":4408:4496   */\n      swap2\n      pop\n        /* \"#utility.yul\":4224:4502   */\n      pop\n        /* \"#utility.yul\":4162:4502   */\n      swap3\n      swap2\n      pop\n      pop\n      jump\t// out\n        /* \"#utility.yul\":4508:4612   */\n    tag_138:\n        /* \"#utility.yul\":4553:4560   */\n      0x00\n        /* \"#utility.yul\":4582:4606   */\n      tag_209\n        /* \"#utility.yul\":4600:4605   */\n      dup3\n        /* \"#utility.yul\":4582:4606   */\n      tag_122\n      jump\t// in\n    tag_209:\n        /* \"#utility.yul\":4571:4606   */\n      swap1\n      pop\n        /* \"#utility.yul\":4508:4612   */\n      swap2\n      swap1\n      pop\n      jump\t// out\n        /* \"#utility.yul\":4618:4756   */\n    tag_139:\n        /* \"#utility.yul\":4699:4731   */\n      tag_211\n        /* \"#utility.yul\":4725:4730   */\n      dup2\n        /* \"#utility.yul\":4699:4731   */\n      tag_138\n      jump\t// in\n    tag_211:\n        /* \"#utility.yul\":4692:4697   */\n      dup2\n        /* \"#utility.yul\":4689:4732   */\n      eq\n        /* \"#utility.yul\":4679:4750   */\n      tag_212\n      jumpi\n        /* \"#utility.yul\":4746:4747   */\n      0x00\n        /* \"#utility.yul\":4743:4744   */\n      dup1\n        /* \"#utility.yul\":4736:4748   */\n      revert\n        /* \"#utility.yul\":4679:4750   */\n    tag_212:\n        /* \"#utility.yul\":4618:4756   */\n      pop\n      jump\t// out\n        /* \"#utility.yul\":4762:4917   */\n    tag_140:\n        /* \"#utility.yul\":4816:4821   */\n      0x00\n        /* \"#utility.yul\":4854:4860   */\n      dup2\n        /* \"#utility.yul\":4841:4861   */\n      calldataload\n        /* \"#utility.yul\":4832:4861   */\n      swap1\n      pop\n        /* \"#utility.yul\":4870:4911   */\n      tag_214\n        /* \"#utility.yul\":4905:4910   */\n      dup2\n        /* \"#utility.yul\":4870:4911   */\n      tag_139\n      jump\t// in\n    tag_214:\n        /* \"#utility.yul\":4762:4917   */\n      swap3\n      swap2\n      pop\n      pop\n      jump\t// out\n        /* \"#utility.yul\":4923:5738   */\n    tag_30:\n        /* \"#utility.yul\":5018:5024   */\n      0x00\n        /* \"#utility.yul\":5026:5032   */\n      dup1\n        /* \"#utility.yul\":5034:5040   */\n      0x00\n        /* \"#utility.yul\":5083:5085   */\n      0x60\n        /* \"#utility.yul\":5071:5080   */\n      dup5\n        /* \"#utility.yul\":5062:5069   */\n      dup7\n        /* \"#utility.yul\":5058:5081   */\n      sub\n        /* \"#utility.yul\":5054:5086   */\n      slt\n        /* \"#utility.yul\":5051:5170   */\n      iszero\n      tag_216\n      jumpi\n        /* \"#utility.yul\":5089:5168   */\n      tag_217\n      tag_117\n      jump\t// in\n    tag_217:\n        /* \"#utility.yul\":5051:5170   */\n    tag_216:\n        /* \"#utility.yul\":5237:5238   */\n      0x00\n        /* \"#utility.yul\":5226:5235   */\n      dup5\n        /* \"#utility.yul\":5222:5239   */\n      add\n        /* \"#utility.yul\":5209:5240   */\n      calldataload\n        /* \"#utility.yul\":5267:5285   */\n      0xffffffffffffffff\n        /* \"#utility.yul\":5259:5265   */\n      dup2\n        /* \"#utility.yul\":5256:5286   */\n      gt\n        /* \"#utility.yul\":5253:5370   */\n      iszero\n      tag_218\n      jumpi\n        /* \"#utility.yul\":5289:5368   */\n      tag_219\n      tag_118\n      jump\t// in\n    tag_219:\n        /* \"#utility.yul\":5253:5370   */\n    tag_218:\n        /* \"#utility.yul\":5394:5457   */\n      tag_220\n        /* \"#utility.yul\":5449:5456   */\n      dup7\n        /* \"#utility.yul\":5440:5446   */\n      dup3\n        /* \"#utility.yul\":5429:5438   */\n      dup8\n        /* \"#utility.yul\":5425:5447   */\n      add\n        /* \"#utility.yul\":5394:5457   */\n      tag_137\n      jump\t// in\n    tag_220:\n        /* \"#utility.yul\":5384:5457   */\n      swap4\n      pop\n        /* \"#utility.yul\":5180:5467   */\n      pop\n        /* \"#utility.yul\":5506:5508   */\n      0x20\n        /* \"#utility.yul\":5532:5585   */\n      tag_221\n        /* \"#utility.yul\":5577:5584   */\n      dup7\n        /* \"#utility.yul\":5568:5574   */\n      dup3\n        /* \"#utility.yul\":5557:5566   */\n      dup8\n        /* \"#utility.yul\":5553:5575   */\n      add\n        /* \"#utility.yul\":5532:5585   */\n      tag_121\n      jump\t// in\n    tag_221:\n        /* \"#utility.yul\":5522:5585   */\n      swap3\n      pop\n        /* \"#utility.yul\":5477:5595   */\n      pop\n        /* \"#utility.yul\":5634:5636   */\n      0x40\n        /* \"#utility.yul\":5660:5721   */\n      tag_222\n        /* \"#utility.yul\":5713:5720   */\n      dup7\n        /* \"#utility.yul\":5704:5710   */\n      dup3\n        /* \"#utility.yul\":5693:5702   */\n      dup8\n        /* \"#utility.yul\":5689:5711   */\n      add\n        /* \"#utility.yul\":5660:5721   */\n      tag_140\n      jump\t// in\n    tag_222:\n        /* \"#utility.yul\":5650:5721   */\n      swap2\n      pop\n        /* \"#utility.yul\":5605:5731   */\n      pop\n        /* \"#utility.yul\":4923:5738   */\n      swap3\n      pop\n      swap3\n      pop\n      swap3\n      jump\t// out\n        /* \"#utility.yul\":5744:5862   */\n    tag_141:\n        /* \"#utility.yul\":5831:5855   */\n      tag_224\n        /* \"#utility.yul\":5849:5854   */\n      dup2\n        /* \"#utility.yul\":5831:5855   */\n      tag_119\n      jump\t// in\n    tag_224:\n        /* \"#utility.yul\":5826:5829   */\n      dup3\n        /* \"#utility.yul\":5819:5856   */\n      mstore\n        /* \"#utility.yul\":5744:5862   */\n      pop\n      pop\n      jump\t// out\n        /* \"#utility.yul\":5868:6090   */\n    tag_36:\n        /* \"#utility.yul\":5961:5965   */\n      0x00\n        /* \"#utility.yul\":5999:6001   */\n      0x20\n        /* \"#utility.yul\":5988:5997   */\n      dup3\n        /* \"#utility.yul\":5984:6002   */\n      add\n        /* \"#utility.yul\":5976:6002   */\n      swap1\n      pop\n        /* \"#utility.yul\":6012:6083   */\n      tag_226\n        /* \"#utility.yul\":6080:6081   */\n      0x00\n        /* \"#utility.yul\":6069:6078   */\n      dup4\n        /* \"#utility.yul\":6065:6082   */\n      add\n        /* \"#utility.yul\":6056:6062   */\n      dup5\n        /* \"#utility.yul\":6012:6083   */\n      tag_141\n      jump\t// in\n    tag_226:\n        /* \"#utility.yul\":5868:6090   */\n      swap3\n      swap2\n      pop\n      pop\n      jump\t// out\n        /* \"#utility.yul\":6096:6214   */\n    tag_142:\n        /* \"#utility.yul\":6183:6207   */\n      tag_228\n        /* \"#utility.yul\":6201:6206   */\n      dup2\n        /* \"#utility.yul\":6183:6207   */\n      tag_123\n      jump\t// in\n    tag_228:\n        /* \"#utility.yul\":6178:6181   */\n      dup3\n        /* \"#utility.yul\":6171:6208   */\n      mstore\n        /* \"#utility.yul\":6096:6214   */\n      pop\n      pop\n      jump\t// out\n        /* \"#utility.yul\":6220:6884   */\n    tag_41:\n        /* \"#utility.yul\":6425:6429   */\n      0x00\n        /* \"#utility.yul\":6463:6466   */\n      0xa0\n        /* \"#utility.yul\":6452:6461   */\n      dup3\n        /* \"#utility.yul\":6448:6467   */\n      add\n        /* \"#utility.yul\":6440:6467   */\n      swap1\n      pop\n        /* \"#utility.yul\":6477:6548   */\n      tag_230\n        /* \"#utility.yul\":6545:6546   */\n      0x00\n        /* \"#utility.yul\":6534:6543   */\n      dup4\n        /* \"#utility.yul\":6530:6547   */\n      add\n        /* \"#utility.yul\":6521:6527   */\n      dup9\n        /* \"#utility.yul\":6477:6548   */\n      tag_141\n      jump\t// in\n    tag_230:\n        /* \"#utility.yul\":6558:6630   */\n      tag_231\n        /* \"#utility.yul\":6626:6628   */\n      0x20\n        /* \"#utility.yul\":6615:6624   */\n      dup4\n        /* \"#utility.yul\":6611:6629   */\n      add\n        /* \"#utility.yul\":6602:6608   */\n      dup8\n        /* \"#utility.yul\":6558:6630   */\n      tag_141\n      jump\t// in\n    tag_231:\n        /* \"#utility.yul\":6640:6712   */\n      tag_232\n        /* \"#utility.yul\":6708:6710   */\n      0x40\n        /* \"#utility.yul\":6697:6706   */\n      dup4\n        /* \"#utility.yul\":6693:6711   */\n      add\n        /* \"#utility.yul\":6684:6690   */\n      dup7\n        /* \"#utility.yul\":6640:6712   */\n      tag_141\n      jump\t// in\n    tag_232:\n        /* \"#utility.yul\":6722:6794   */\n      tag_233\n        /* \"#utility.yul\":6790:6792   */\n      0x60\n        /* \"#utility.yul\":6779:6788   */\n      dup4\n        /* \"#utility.yul\":6775:6793   */\n      add\n        /* \"#utility.yul\":6766:6772   */\n      dup6\n        /* \"#utility.yul\":6722:6794   */\n      tag_141\n      jump\t// in\n    tag_233:\n        /* \"#utility.yul\":6804:6877   */\n      tag_234\n        /* \"#utility.yul\":6872:6875   */\n      0x80\n        /* \"#utility.yul\":6861:6870   */\n      dup4\n        /* \"#utility.yul\":6857:6876   */\n      add\n        /* \"#utility.yul\":6848:6854   */\n      dup5\n        /* \"#utility.yul\":6804:6877   */\n      tag_142\n      jump\t// in\n    tag_234:\n        /* \"#utility.yul\":6220:6884   */\n      swap7\n      swap6\n      pop\n      pop\n      pop\n      pop\n      pop\n      pop\n      jump\t// out\n        /* \"#utility.yul\":6890:7112   */\n    tag_50:\n        /* \"#utility.yul\":6983:6987   */\n      0x00\n        /* \"#utility.yul\":7021:7023   */\n      0x20\n        /* \"#utility.yul\":7010:7019   */\n      dup3\n        /* \"#utility.yul\":7006:7024   */\n      add\n        /* \"#utility.yul\":6998:7024   */\n      swap1\n      pop\n        /* \"#utility.yul\":7034:7105   */\n      tag_236\n        /* \"#utility.yul\":7102:7103   */\n      0x00\n        /* \"#utility.yul\":7091:7100   */\n      dup4\n        /* \"#utility.yul\":7087:7104   */\n      add\n        /* \"#utility.yul\":7078:7084   */\n      dup5\n        /* \"#utility.yul\":7034:7105   */\n      tag_142\n      jump\t// in\n    tag_236:\n        /* \"#utility.yul\":6890:7112   */\n      swap3\n      swap2\n      pop\n      pop\n      jump\t// out\n        /* \"#utility.yul\":7118:7217   */\n    tag_143:\n        /* \"#utility.yul\":7170:7176   */\n      0x00\n        /* \"#utility.yul\":7204:7209   */\n      dup2\n        /* \"#utility.yul\":7198:7210   */\n      mload\n        /* \"#utility.yul\":7188:7210   */\n      swap1\n      pop\n        /* \"#utility.yul\":7118:7217   */\n      swap2\n      swap1\n      pop\n      jump\t// out\n        /* \"#utility.yul\":7223:7392   */\n    tag_144:\n        /* \"#utility.yul\":7307:7318   */\n      0x00\n        /* \"#utility.yul\":7341:7347   */\n      dup3\n        /* \"#utility.yul\":7336:7339   */\n      dup3\n        /* \"#utility.yul\":7329:7348   */\n      mstore\n        /* \"#utility.yul\":7381:7385   */\n      0x20\n        /* \"#utility.yul\":7376:7379   */\n      dup3\n        /* \"#utility.yul\":7372:7386   */\n      add\n        /* \"#utility.yul\":7357:7386   */\n      swap1\n      pop\n        /* \"#utility.yul\":7223:7392   */\n      swap3\n      swap2\n      pop\n      pop\n      jump\t// out\n        /* \"#utility.yul\":7398:7705   */\n    tag_145:\n        /* \"#utility.yul\":7466:7467   */\n      0x00\n        /* \"#utility.yul\":7476:7589   */\n    tag_240:\n        /* \"#utility.yul\":7490:7496   */\n      dup4\n        /* \"#utility.yul\":7487:7488   */\n      dup2\n        /* \"#utility.yul\":7484:7497   */\n      lt\n        /* \"#utility.yul\":7476:7589   */\n      iszero\n      tag_242\n      jumpi\n        /* \"#utility.yul\":7575:7576   */\n      dup1\n        /* \"#utility.yul\":7570:7573   */\n      dup3\n        /* \"#utility.yul\":7566:7577   */\n      add\n        /* \"#utility.yul\":7560:7578   */\n      mload\n        /* \"#utility.yul\":7556:7557   */\n      dup2\n        /* \"#utility.yul\":7551:7554   */\n      dup5\n        /* \"#utility.yul\":7547:7558   */\n      add\n        /* \"#utility.yul\":7540:7579   */\n      mstore\n        /* \"#utility.yul\":7512:7514   */\n      0x20\n        /* \"#utility.yul\":7509:7510   */\n      dup2\n        /* \"#utility.yul\":7505:7515   */\n      add\n        /* \"#utility.yul\":7500:7515   */\n      swap1\n      pop\n        /* \"#utility.yul\":7476:7589   */\n      jump(tag_240)\n    tag_242:\n        /* \"#utility.yul\":7607:7613   */\n      dup4\n        /* \"#utility.yul\":7604:7605   */\n      dup2\n        /* \"#utility.yul\":7601:7614   */\n      gt\n        /* \"#utility.yul\":7598:7699   */\n      iszero\n      tag_243\n      jumpi\n        /* \"#utility.yul\":7687:7688   */\n      0x00\n        /* \"#utility.yul\":7678:7684   */\n      dup5\n        /* \"#utility.yul\":7673:7676   */\n      dup5\n        /* \"#utility.yul\":7669:7685   */\n      add\n        /* \"#utility.yul\":7662:7689   */\n      mstore\n        /* \"#utility.yul\":7598:7699   */\n    tag_243:\n        /* \"#utility.yul\":7447:7705   */\n      pop\n        /* \"#utility.yul\":7398:7705   */\n      pop\n      pop\n      pop\n      jump\t// out\n        /* \"#utility.yul\":7711:8075   */\n    tag_146:\n        /* \"#utility.yul\":7799:7802   */\n      0x00\n        /* \"#utility.yul\":7827:7866   */\n      tag_245\n        /* \"#utility.yul\":7860:7865   */\n      dup3\n        /* \"#utility.yul\":7827:7866   */\n      tag_143\n      jump\t// in\n    tag_245:\n        /* \"#utility.yul\":7882:7953   */\n      tag_246\n        /* \"#utility.yul\":7946:7952   */\n      dup2\n        /* \"#utility.yul\":7941:7944   */\n      dup6\n        /* \"#utility.yul\":7882:7953   */\n      tag_144\n      jump\t// in\n    tag_246:\n        /* \"#utility.yul\":7875:7953   */\n      swap4\n      pop\n        /* \"#utility.yul\":7962:8014   */\n      tag_247\n        /* \"#utility.yul\":8007:8013   */\n      dup2\n        /* \"#utility.yul\":8002:8005   */\n      dup6\n        /* \"#utility.yul\":7995:7999   */\n      0x20\n        /* \"#utility.yul\":7988:7993   */\n      dup7\n        /* \"#utility.yul\":7984:8000   */\n      add\n        /* \"#utility.yul\":7962:8014   */\n      tag_145\n      jump\t// in\n    tag_247:\n        /* \"#utility.yul\":8039:8068   */\n      tag_248\n        /* \"#utility.yul\":8061:8067   */\n      dup2\n        /* \"#utility.yul\":8039:8068   */\n      tag_130\n      jump\t// in\n    tag_248:\n        /* \"#utility.yul\":8034:8037   */\n      dup5\n        /* \"#utility.yul\":8030:8069   */\n      add\n        /* \"#utility.yul\":8023:8069   */\n      swap2\n      pop\n        /* \"#utility.yul\":7803:8075   */\n      pop\n        /* \"#utility.yul\":7711:8075   */\n      swap3\n      swap2\n      pop\n      pop\n      jump\t// out\n        /* \"#utility.yul\":8081:8223   */\n    tag_147:\n        /* \"#utility.yul\":8184:8216   */\n      tag_250\n        /* \"#utility.yul\":8210:8215   */\n      dup2\n        /* \"#utility.yul\":8184:8216   */\n      tag_138\n      jump\t// in\n    tag_250:\n        /* \"#utility.yul\":8179:8182   */\n      dup3\n        /* \"#utility.yul\":8172:8217   */\n      mstore\n        /* \"#utility.yul\":8081:8223   */\n      pop\n      pop\n      jump\t// out\n        /* \"#utility.yul\":8229:9004   */\n    tag_56:\n        /* \"#utility.yul\":8464:8468   */\n      0x00\n        /* \"#utility.yul\":8502:8505   */\n      0xa0\n        /* \"#utility.yul\":8491:8500   */\n      dup3\n        /* \"#utility.yul\":8487:8506   */\n      add\n        /* \"#utility.yul\":8479:8506   */\n      swap1\n      pop\n        /* \"#utility.yul\":8552:8561   */\n      dup2\n        /* \"#utility.yul\":8546:8550   */\n      dup2\n        /* \"#utility.yul\":8542:8562   */\n      sub\n        /* \"#utility.yul\":8538:8539   */\n      0x00\n        /* \"#utility.yul\":8527:8536   */\n      dup4\n        /* \"#utility.yul\":8523:8540   */\n      add\n        /* \"#utility.yul\":8516:8563   */\n      mstore\n        /* \"#utility.yul\":8580:8658   */\n      tag_252\n        /* \"#utility.yul\":8653:8657   */\n      dup2\n        /* \"#utility.yul\":8644:8650   */\n      dup9\n        /* \"#utility.yul\":8580:8658   */\n      tag_146\n      jump\t// in\n    tag_252:\n        /* \"#utility.yul\":8572:8658   */\n      swap1\n      pop\n        /* \"#utility.yul\":8668:8740   */\n      tag_253\n        /* \"#utility.yul\":8736:8738   */\n      0x20\n        /* \"#utility.yul\":8725:8734   */\n      dup4\n        /* \"#utility.yul\":8721:8739   */\n      add\n        /* \"#utility.yul\":8712:8718   */\n      dup8\n        /* \"#utility.yul\":8668:8740   */\n      tag_141\n      jump\t// in\n    tag_253:\n        /* \"#utility.yul\":8750:8838   */\n      tag_254\n        /* \"#utility.yul\":8834:8836   */\n      0x40\n        /* \"#utility.yul\":8823:8832   */\n      dup4\n        /* \"#utility.yul\":8819:8837   */\n      add\n        /* \"#utility.yul\":8810:8816   */\n      dup7\n        /* \"#utility.yul\":8750:8838   */\n      tag_147\n      jump\t// in\n    tag_254:\n        /* \"#utility.yul\":8848:8914   */\n      tag_255\n        /* \"#utility.yul\":8910:8912   */\n      0x60\n        /* \"#utility.yul\":8899:8908   */\n      dup4\n        /* \"#utility.yul\":8895:8913   */\n      add\n        /* \"#utility.yul\":8886:8892   */\n      dup6\n        /* \"#utility.yul\":8848:8914   */\n      tag_127\n      jump\t// in\n    tag_255:\n        /* \"#utility.yul\":8924:8997   */\n      tag_256\n        /* \"#utility.yul\":8992:8995   */\n      0x80\n        /* \"#utility.yul\":8981:8990   */\n      dup4\n        /* \"#utility.yul\":8977:8996   */\n      add\n        /* \"#utility.yul\":8968:8974   */\n      dup5\n        /* \"#utility.yul\":8924:8997   */\n      tag_141\n      jump\t// in\n    tag_256:\n        /* \"#utility.yul\":8229:9004   */\n      swap7\n      swap6\n      pop\n      pop\n      pop\n      pop\n      pop\n      pop\n      jump\t// out\n        /* \"#utility.yul\":9010:9190   */\n    tag_148:\n        /* \"#utility.yul\":9058:9135   */\n      0x4e487b7100000000000000000000000000000000000000000000000000000000\n        /* \"#utility.yul\":9055:9056   */\n      0x00\n        /* \"#utility.yul\":9048:9136   */\n      mstore\n        /* \"#utility.yul\":9155:9159   */\n      0x12\n        /* \"#utility.yul\":9152:9153   */\n      0x04\n        /* \"#utility.yul\":9145:9160   */\n      mstore\n        /* \"#utility.yul\":9179:9183   */\n      0x24\n        /* \"#utility.yul\":9176:9177   */\n      0x00\n        /* \"#utility.yul\":9169:9184   */\n      revert\n        /* \"#utility.yul\":9196:9376   */\n    tag_149:\n        /* \"#utility.yul\":9244:9321   */\n      0x4e487b7100000000000000000000000000000000000000000000000000000000\n        /* \"#utility.yul\":9241:9242   */\n      0x00\n        /* \"#utility.yul\":9234:9322   */\n      mstore\n        /* \"#utility.yul\":9341:9345   */\n      0x11\n        /* \"#utility.yul\":9338:9339   */\n      0x04\n        /* \"#utility.yul\":9331:9346   */\n      mstore\n        /* \"#utility.yul\":9365:9369   */\n      0x24\n        /* \"#utility.yul\":9362:9363   */\n      0x00\n        /* \"#utility.yul\":9355:9370   */\n      revert\n        /* \"#utility.yul\":9382:9567   */\n    tag_76:\n        /* \"#utility.yul\":9422:9423   */\n      0x00\n        /* \"#utility.yul\":9439:9459   */\n      tag_260\n        /* \"#utility.yul\":9457:9458   */\n      dup3\n        /* \"#utility.yul\":9439:9459   */\n      tag_119\n      jump\t// in\n    tag_260:\n        /* \"#utility.yul\":9434:9459   */\n      swap2\n      pop\n        /* \"#utility.yul\":9473:9493   */\n      tag_261\n        /* \"#utility.yul\":9491:9492   */\n      dup4\n        /* \"#utility.yul\":9473:9493   */\n      tag_119\n      jump\t// in\n    tag_261:\n        /* \"#utility.yul\":9468:9493   */\n      swap3\n      pop\n        /* \"#utility.yul\":9512:9513   */\n      dup3\n        /* \"#utility.yul\":9502:9537   */\n      tag_262\n      jumpi\n        /* \"#utility.yul\":9517:9535   */\n      tag_263\n      tag_148\n      jump\t// in\n    tag_263:\n        /* \"#utility.yul\":9502:9537   */\n    tag_262:\n        /* \"#utility.yul\":9559:9560   */\n      dup3\n        /* \"#utility.yul\":9556:9557   */\n      dup3\n        /* \"#utility.yul\":9552:9561   */\n      div\n        /* \"#utility.yul\":9547:9561   */\n      swap1\n      pop\n        /* \"#utility.yul\":9382:9567   */\n      swap3\n      swap2\n      pop\n      pop\n      jump\t// out\n        /* \"#utility.yul\":9573:9806   */\n    tag_87:\n        /* \"#utility.yul\":9612:9615   */\n      0x00\n        /* \"#utility.yul\":9635:9659   */\n      tag_265\n        /* \"#utility.yul\":9653:9658   */\n      dup3\n        /* \"#utility.yul\":9635:9659   */\n      tag_119\n      jump\t// in\n    tag_265:\n        /* \"#utility.yul\":9626:9659   */\n      swap2\n      pop\n        /* \"#utility.yul\":9681:9747   */\n      0xffffffffffffffffffffffffffffffffffffffffffffffffffffffffffffffff\n        /* \"#utility.yul\":9674:9679   */\n      dup3\n        /* \"#utility.yul\":9671:9748   */\n      sub\n        /* \"#utility.yul\":9668:9771   */\n      tag_266\n      jumpi\n        /* \"#utility.yul\":9751:9769   */\n      tag_267\n      tag_149\n      jump\t// in\n    tag_267:\n        /* \"#utility.yul\":9668:9771   */\n    tag_266:\n        /* \"#utility.yul\":9798:9799   */\n      0x01\n        /* \"#utility.yul\":9791:9796   */\n      dup3\n        /* \"#utility.yul\":9787:9800   */\n      add\n        /* \"#utility.yul\":9780:9800   */\n      swap1\n      pop\n        /* \"#utility.yul\":9573:9806   */\n      swap2\n      swap1\n      pop\n      jump\t// out\n        /* \"#utility.yul\":9812:9992   */\n    tag_150:\n        /* \"#utility.yul\":9860:9937   */\n      0x4e487b7100000000000000000000000000000000000000000000000000000000\n        /* \"#utility.yul\":9857:9858   */\n      0x00\n        /* \"#utility.yul\":9850:9938   */\n      mstore\n        /* \"#utility.yul\":9957:9961   */\n      0x22\n        /* \"#utility.yul\":9954:9955   */\n      0x04\n        /* \"#utility.yul\":9947:9962   */\n      mstore\n        /* \"#utility.yul\":9981:9985   */\n      0x24\n        /* \"#utility.yul\":9978:9979   */\n      0x00\n        /* \"#utility.yul\":9971:9986   */\n      revert\n        /* \"#utility.yul\":9998:10318   */\n    tag_91:\n        /* \"#utility.yul\":10042:10048   */\n      0x00\n        /* \"#utility.yul\":10079:10080   */\n      0x02\n        /* \"#utility.yul\":10073:10077   */\n      dup3\n        /* \"#utility.yul\":10069:10081   */\n      div\n        /* \"#utility.yul\":10059:10081   */\n      swap1\n      pop\n        /* \"#utility.yul\":10126:10127   */\n      0x01\n        /* \"#utility.yul\":10120:10124   */\n      dup3\n        /* \"#utility.yul\":10116:10128   */\n      and\n        /* \"#utility.yul\":10147:10165   */\n      dup1\n        /* \"#utility.yul\":10137:10218   */\n      tag_270\n      jumpi\n        /* \"#utility.yul\":10203:10207   */\n      0x7f\n        /* \"#utility.yul\":10195:10201   */\n      dup3\n        /* \"#utility.yul\":10191:10208   */\n      and\n        /* \"#utility.yul\":10181:10208   */\n      swap2\n      pop\n        /* \"#utility.yul\":10137:10218   */\n    tag_270:\n        /* \"#utility.yul\":10265:10267   */\n      0x20\n        /* \"#utility.yul\":10257:10263   */\n      dup3\n        /* \"#utility.yul\":10254:10268   */\n      lt\n        /* \"#utility.yul\":10234:10252   */\n      dup2\n        /* \"#utility.yul\":10231:10269   */\n      sub\n        /* \"#utility.yul\":10228:10312   */\n      tag_271\n      jumpi\n        /* \"#utility.yul\":10284:10302   */\n      tag_272\n      tag_150\n      jump\t// in\n    tag_272:\n        /* \"#utility.yul\":10228:10312   */\n    tag_271:\n        /* \"#utility.yul\":10049:10318   */\n      pop\n        /* \"#utility.yul\":9998:10318   */\n      swap2\n      swap1\n      pop\n      jump\t// out\n\n    auxdata: 0xa2646970667358221220040ba06e79767483c0d8dc180983318a45a689636de36c265499fad862e7e83564736f6c634300080e0033\n}\n","bytecode":{"linkReferences":{},"object":"60806040526040516200113e3803806200113e83398181016040528101906200002991906200012d565b806000806101000a81548173ffffffffffffffffffffffffffffffffffffffff021916908373ffffffffffffffffffffffffffffffffffffffff1602179055508160018190555060006002819055506000600381905550505062000174565b600080fd5b6000819050919050565b620000a2816200008d565b8114620000ae57600080fd5b50565b600081519050620000c28162000097565b92915050565b600073ffffffffffffffffffffffffffffffffffffffff82169050919050565b6000620000f582620000c8565b9050919050565b6200010781620000e8565b81146200011357600080fd5b50565b6000815190506200012781620000fc565b92915050565b6000806040838503121562000147576200014662000088565b5b60006200015785828601620000b1565b92505060206200016a8582860162000116565b9150509250929050565b610fba80620001846000396000f3fe6080604052600436106100a75760003560e01c8063481c6a7511610064578063481c6a75146101c057806381d12c58146101eb578063aaffadf31461022c578063d7bb99ba14610257578063d7d1bbdb14610261578063ecfd89281461028a576100a7565b806303441006146100ac5780630a144391146100d5578063277c3da4146101125780633410452a1461013b5780634051ddac14610166578063420714bd14610195575b600080fd5b3480156100b857600080fd5b506100d360048036038101906100ce91906109d4565b6102b5565b005b3480156100e157600080fd5b506100fc60048036038101906100f79190610a5f565b6103ed565b6040516101099190610aa7565b60405180910390f35b34801561011e57600080fd5b5061013960048036038101906101349190610c46565b61040d565b005b34801561014757600080fd5b50610150610535565b60405161015d9190610cc4565b60405180910390f35b34801561017257600080fd5b5061017b61053f565b60405161018c959493929190610cee565b60405180910390f35b3480156101a157600080fd5b506101aa610583565b6040516101b79190610cc4565b60405180910390f35b3480156101cc57600080fd5b506101d5610589565b6040516101e29190610d41565b60405180910390f35b3480156101f757600080fd5b50610212600480360381019061020d91906109d4565b6105ad565b604051610223959493929190610df3565b60405180910390f35b34801561023857600080fd5b50610241610698565b60405161024e9190610cc4565b60405180910390f35b61025f61069e565b005b34801561026d57600080fd5b50610288600480360381019061028391906109d4565b610770565b005b34801561029657600080fd5b5061029f6108e1565b6040516102ac9190610cc4565b60405180910390f35b60008054906101000a900473ffffffffffffffffffffffffffffffffffffffff1673ffffffffffffffffffffffffffffffffffffffff163373ffffffffffffffffffffffffffffffffffffffff161461030d57600080fd5b60006005600083815260200190815260200160002090508060020160149054906101000a900460ff161561034057600080fd5b6002805461034e9190610eab565b81600301541161035d57600080fd5b60018160020160146101000a81548160ff0219169083151502179055508060020160009054906101000a900473ffffffffffffffffffffffffffffffffffffffff1673ffffffffffffffffffffffffffffffffffffffff166108fc82600101549081150290604051600060405180830381858888f193505050501580156103e8573d6000803e3d6000fd5b505050565b60046020528060005260406000206000915054906101000a900460ff1681565b60008054906101000a900473ffffffffffffffffffffffffffffffffffffffff1673ffffffffffffffffffffffffffffffffffffffff163373ffffffffffffffffffffffffffffffffffffffff161461046557600080fd5b4782111561047257600080fd5b60006005600060035481526020019081526020016000209050838160000190805190602001906104a39291906108e7565b50818160020160006101000a81548173ffffffffffffffffffffffffffffffffffffffff021916908373ffffffffffffffffffffffffffffffffffffffff16021790555082816001018190555060008160020160146101000a81548160ff021916908315150217905550600081600301819055506003600081548092919061052a90610edc565b919050555050505050565b6000600354905090565b60008060008060006001544760035460025460008054906101000a900473ffffffffffffffffffffffffffffffffffffffff16945094509450945094509091929394565b60035481565b60008054906101000a900473ffffffffffffffffffffffffffffffffffffffff1681565b60056020528060005260406000206000915090508060000180546105d090610f53565b80601f01602080910402602001604051908101604052809291908181526020018280546105fc90610f53565b80156106495780601f1061061e57610100808354040283529160200191610649565b820191906000526020600020905b81548152906001019060200180831161062c57829003601f168201915b5050505050908060010154908060020160009054906101000a900473ffffffffffffffffffffffffffffffffffffffff16908060020160149054906101000a900460ff16908060030154905085565b60015481565b60015434116106ac57600080fd5b600460003373ffffffffffffffffffffffffffffffffffffffff1673ffffffffffffffffffffffffffffffffffffffff16815260200190815260200160002060009054906101000a900460ff1661076e576001600460003373ffffffffffffffffffffffffffffffffffffffff1673ffffffffffffffffffffffffffffffffffffffff16815260200190815260200160002060006101000a81548160ff0219169083151502179055506002600081548092919061076890610edc565b91905055505b565b6000600560008381526020019081526020016000209050600081600101540361079857600080fd5b8060020160149054906101000a900460ff16156107b457600080fd5b600460003373ffffffffffffffffffffffffffffffffffffffff1673ffffffffffffffffffffffffffffffffffffffff16815260200190815260200160002060009054906101000a900460ff1661080a57600080fd5b600015158160040160003373ffffffffffffffffffffffffffffffffffffffff1673ffffffffffffffffffffffffffffffffffffffff16815260200190815260200160002060009054906101000a900460ff1615151461086957600080fd5b60018160040160003373ffffffffffffffffffffffffffffffffffffffff1673ffffffffffffffffffffffffffffffffffffffff16815260200190815260200160002060006101000a81548160ff0219169083151502179055508060030160008154809291906108d890610edc565b91905055505050565b60025481565b8280546108f390610f53565b90600052602060002090601f016020900481019282610915576000855561095c565b82601f1061092e57805160ff191683800117855561095c565b8280016001018555821561095c579182015b8281111561095b578251825591602001919060010190610940565b5b509050610969919061096d565b5090565b5b8082111561098657600081600090555060010161096e565b5090565b6000604051905090565b600080fd5b600080fd5b6000819050919050565b6109b18161099e565b81146109bc57600080fd5b50565b6000813590506109ce816109a8565b92915050565b6000602082840312156109ea576109e9610994565b5b60006109f8848285016109bf565b91505092915050565b600073ffffffffffffffffffffffffffffffffffffffff82169050919050565b6000610a2c82610a01565b9050919050565b610a3c81610a21565b8114610a4757600080fd5b50565b600081359050610a5981610a33565b92915050565b600060208284031215610a7557610a74610994565b5b6000610a8384828501610a4a565b91505092915050565b60008115159050919050565b610aa181610a8c565b82525050565b6000602082019050610abc6000830184610a98565b92915050565b600080fd5b600080fd5b6000601f19601f8301169050919050565b7f4e487b7100000000000000000000000000000000000000000000000000000000600052604160045260246000fd5b610b1582610acc565b810181811067ffffffffffffffff82111715610b3457610b33610add565b5b80604052505050565b6000610b4761098a565b9050610b538282610b0c565b919050565b600067ffffffffffffffff821115610b7357610b72610add565b5b610b7c82610acc565b9050602081019050919050565b82818337600083830152505050565b6000610bab610ba684610b58565b610b3d565b905082815260208101848484011115610bc757610bc6610ac7565b5b610bd2848285610b89565b509392505050565b600082601f830112610bef57610bee610ac2565b5b8135610bff848260208601610b98565b91505092915050565b6000610c1382610a01565b9050919050565b610c2381610c08565b8114610c2e57600080fd5b50565b600081359050610c4081610c1a565b92915050565b600080600060608486031215610c5f57610c5e610994565b5b600084013567ffffffffffffffff811115610c7d57610c7c610999565b5b610c8986828701610bda565b9350506020610c9a868287016109bf565b9250506040610cab86828701610c31565b9150509250925092565b610cbe8161099e565b82525050565b6000602082019050610cd96000830184610cb5565b92915050565b610ce881610a21565b82525050565b600060a082019050610d036000830188610cb5565b610d106020830187610cb5565b610d1d6040830186610cb5565b610d2a6060830185610cb5565b610d376080830184610cdf565b9695505050505050565b6000602082019050610d566000830184610cdf565b92915050565b600081519050919050565b600082825260208201905092915050565b60005b83811015610d96578082015181840152602081019050610d7b565b83811115610da5576000848401525b50505050565b6000610db682610d5c565b610dc08185610d67565b9350610dd0818560208601610d78565b610dd981610acc565b840191505092915050565b610ded81610c08565b82525050565b600060a0820190508181036000830152610e0d8188610dab565b9050610e1c6020830187610cb5565b610e296040830186610de4565b610e366060830185610a98565b610e436080830184610cb5565b9695505050505050565b7f4e487b7100000000000000000000000000000000000000000000000000000000600052601260045260246000fd5b7f4e487b7100000000000000000000000000000000000000000000000000000000600052601160045260246000fd5b6000610eb68261099e565b9150610ec18361099e565b925082610ed157610ed0610e4d565b5b828204905092915050565b6000610ee78261099e565b91507fffffffffffffffffffffffffffffffffffffffffffffffffffffffffffffffff8203610f1957610f18610e7c565b5b600182019050919050565b7f4e487b7100000000000000000000000000000000000000000000000000000000600052602260045260246000fd5b60006002820490506001821680610f6b57607f821691505b602082108103610f7e57610f7d610f24565b5b5091905056fea2646970667358221220040ba06e79767483c0d8dc180983318a45a689636de36c265499fad862e7e83564736f6c634300080e0033","opcodes":"PUSH1 0x80 PUSH1 0x40 MSTORE PUSH1 0x40 MLOAD PUSH3 0x113E CODESIZE SUB DUP1 PUSH3 0x113E DUP4 CODECOPY DUP2 DUP2 ADD PUSH1 0x40 MSTORE DUP2 ADD SWAP1 PUSH3 0x29 SWAP2 SWAP1 PUSH3 0x12D JUMP JUMPDEST DUP1 PUSH1 0x0 DUP1 PUSH2 0x100 EXP DUP2 SLOAD DUP2 PUSH20 0xFFFFFFFFFFFFFFFFFFFFFFFFFFFFFFFFFFFFFFFF MUL NOT AND SWAP1 DUP4 PUSH20 0xFFFFFFFFFFFFFFFFFFFFFFFFFFFFFFFFFFFFFFFF AND MUL OR SWAP1 SSTORE POP DUP2 PUSH1 0x1 DUP2 SWAP1 SSTORE POP PUSH1 0x0 PUSH1 0x2 DUP2 SWAP1 SSTORE POP PUSH1 0x0 PUSH1 0x3 DUP2 SWAP1 SSTORE POP POP POP PUSH3 0x174 JUMP JUMPDEST PUSH1 0x0 DUP1 REVERT JUMPDEST PUSH1 0x0 DUP2 SWAP1 POP SWAP2 SWAP1 POP JUMP JUMPDEST PUSH3 0xA2 DUP2 PUSH3 0x8D JUMP JUMPDEST DUP2 EQ PUSH3 0xAE JUMPI PUSH1 0x0 DUP1 REVERT JUMPDEST POP JUMP JUMPDEST PUSH1 0x0 DUP2 MLOAD SWAP1 POP PUSH3 0xC2 DUP2 PUSH3 0x97 JUMP JUMPDEST SWAP3 SWAP2 POP POP JUMP JUMPDEST PUSH1 0x0 PUSH20 0xFFFFFFFFFFFFFFFFFFFFFFFFFFFFFFFFFFFFFFFF DUP3 AND SWAP1 POP SWAP2 SWAP1 POP JUMP JUMPDEST PUSH1 0x0 PUSH3 0xF5 DUP3 PUSH3 0xC8 JUMP JUMPDEST SWAP1 POP SWAP2 SWAP1 POP JUMP JUMPDEST PUSH3 0x107 DUP2 PUSH3 0xE8 JUMP JUMPDEST DUP2 EQ PUSH3 0x113 JUMPI PUSH1 0x0 DUP1 REVERT JUMPDEST POP JUMP JUMPDEST PUSH1 0x0 DUP2 MLOAD SWAP1 POP PUSH3 0x127 DUP2 PUSH3 0xFC JUMP JUMPDEST SWAP3 SWAP2 POP POP JUMP JUMPDEST PUSH1 0x0 DUP1 PUSH1 0x40 DUP4 DUP6 SUB SLT ISZERO PUSH3 0x147 JUMPI PUSH3 0x146 PUSH3 0x88 JUMP JUMPDEST JUMPDEST PUSH1 0x0 PUSH3 0x157 DUP6 DUP3 DUP7 ADD PUSH3 0xB1 JUMP JUMPDEST SWAP3 POP POP PUSH1 0x20 PUSH3 0x16A DUP6 DUP3 DUP7 ADD PUSH3 0x116 JUMP JUMPDEST SWAP2 POP POP SWAP3 POP SWAP3 SWAP1 POP JUMP JUMPDEST PUSH2 0xFBA DUP1 PUSH3 0x184 PUSH1 0x0 CODECOPY PUSH1 0x0 RETURN INVALID PUSH1 0x80 PUSH1 0x40 MSTORE PUSH1 0x4 CALLDATASIZE LT PUSH2 0xA7 JUMPI PUSH1 0x0 CALLDATALOAD PUSH1 0xE0 SHR DUP1 PUSH4 0x481C6A75 GT PUSH2 0x64 JUMPI DUP1 PUSH4 0x481C6A75 EQ PUSH2 0x1C0 JUMPI DUP1 PUSH4 0x81D12C58 EQ PUSH2 0x1EB JUMPI DUP1 PUSH4 0xAAFFADF3 EQ PUSH2 0x22C JUMPI DUP1 PUSH4 0xD7BB99BA EQ PUSH2 0x257 JUMPI DUP1 PUSH4 0xD7D1BBDB EQ PUSH2 0x261 JUMPI DUP1 PUSH4 0xECFD8928 EQ PUSH2 0x28A JUMPI PUSH2 0xA7 JUMP JUMPDEST DUP1 PUSH4 0x3441006 EQ PUSH2 0xAC JUMPI DUP1 PUSH4 0xA144391 EQ PUSH2 0xD5 JUMPI DUP1 PUSH4 0x277C3DA4 EQ PUSH2 0x112 JUMPI DUP1 PUSH4 0x3410452A EQ PUSH2 0x13B JUMPI DUP1 PUSH4 0x4051DDAC EQ PUSH2 0x166 JUMPI DUP1 PUSH4 0x420714BD EQ PUSH2 0x195 JUMPI JUMPDEST PUSH1 0x0 DUP1 REVERT JUMPDEST CALLVALUE DUP1 ISZERO PUSH2 0xB8 JUMPI PUSH1 0x0 DUP1 REVERT JUMPDEST POP PUSH2 0xD3 PUSH1 0x4 DUP1 CALLDATASIZE SUB DUP2 ADD SWAP1 PUSH2 0xCE SWAP2 SWAP1 PUSH2 0x9D4 JUMP JUMPDEST PUSH2 0x2B5 JUMP JUMPDEST STOP JUMPDEST CALLVALUE DUP1 ISZERO PUSH2 0xE1 JUMPI PUSH1 0x0 DUP1 REVERT JUMPDEST POP PUSH2 0xFC PUSH1 0x4 DUP1 CALLDATASIZE SUB DUP2 ADD SWAP1 PUSH2 0xF7 SWAP2 SWAP1 PUSH2 0xA5F JUMP JUMPDEST PUSH2 0x3ED JUMP JUMPDEST PUSH1 0x40 MLOAD PUSH2 0x109 SWAP2 SWAP1 PUSH2 0xAA7 JUMP JUMPDEST PUSH1 0x40 MLOAD DUP1 SWAP2 SUB SWAP1 RETURN JUMPDEST CALLVALUE DUP1 ISZERO PUSH2 0x11E JUMPI PUSH1 0x0 DUP1 REVERT JUMPDEST POP PUSH2 0x139 PUSH1 0x4 DUP1 CALLDATASIZE SUB DUP2 ADD SWAP1 PUSH2 0x134 SWAP2 SWAP1 PUSH2 0xC46 JUMP JUMPDEST PUSH2 0x40D JUMP JUMPDEST STOP JUMPDEST CALLVALUE DUP1 ISZERO PUSH2 0x147 JUMPI PUSH1 0x0 DUP1 REVERT JUMPDEST POP PUSH2 0x150 PUSH2 0x535 JUMP JUMPDEST PUSH1 0x40 MLOAD PUSH2 0x15D SWAP2 SWAP1 PUSH2 0xCC4 JUMP JUMPDEST PUSH1 0x40 MLOAD DUP1 SWAP2 SUB SWAP1 RETURN JUMPDEST CALLVALUE DUP1 ISZERO PUSH2 0x172 JUMPI PUSH1 0x0 DUP1 REVERT JUMPDEST POP PUSH2 0x17B PUSH2 0x53F JUMP JUMPDEST PUSH1 0x40 MLOAD PUSH2 0x18C SWAP6 SWAP5 SWAP4 SWAP3 SWAP2 SWAP1 PUSH2 0xCEE JUMP JUMPDEST PUSH1 0x40 MLOAD DUP1 SWAP2 SUB SWAP1 RETURN JUMPDEST CALLVALUE DUP1 ISZERO PUSH2 0x1A1 JUMPI PUSH1 0x0 DUP1 REVERT JUMPDEST POP PUSH2 0x1AA PUSH2 0x583 JUMP JUMPDEST PUSH1 0x40 MLOAD PUSH2 0x1B7 SWAP2 SWAP1 PUSH2 0xCC4 JUMP JUMPDEST PUSH1 0x40 MLOAD DUP1 SWAP2 SUB SWAP1 RETURN JUMPDEST CALLVALUE DUP1 ISZERO PUSH2 0x1CC JUMPI PUSH1 0x0 DUP1 REVERT JUMPDEST POP PUSH2 0x1D5 PUSH2 0x589 JUMP JUMPDEST PUSH1 0x40 MLOAD PUSH2 0x1E2 SWAP2 SWAP1 PUSH2 0xD41 JUMP JUMPDEST PUSH1 0x40 MLOAD DUP1 SWAP2 SUB SWAP1 RETURN JUMPDEST CALLVALUE DUP1 ISZERO PUSH2 0x1F7 JUMPI PUSH1 0x0 DUP1 REVERT JUMPDEST POP PUSH2 0x212 PUSH1 0x4 DUP1 CALLDATASIZE SUB DUP2 ADD SWAP1 PUSH2 0x20D SWAP2 SWAP1 PUSH2 0x9D4 JUMP JUMPDEST PUSH2 0x5AD JUMP JUMPDEST PUSH1 0x40 MLOAD PUSH2 0x223 SWAP6 SWAP5 SWAP4 SWAP3 SWAP2 SWAP1 PUSH2 0xDF3 JUMP JUMPDEST PUSH1 0x40 MLOAD DUP1 SWAP2 SUB SWAP1 RETURN JUMPDEST CALLVALUE DUP1 ISZERO PUSH2 0x238 JUMPI PUSH1 0x0 DUP1 REVERT JUMPDEST POP PUSH2 0x241 PUSH2 0x698 JUMP JUMPDEST PUSH1 0x40 MLOAD PUSH2 0x24E SWAP2 SWAP1 PUSH2 0xCC4 JUMP JUMPDEST PUSH1 0x40 MLOAD DUP1 SWAP2 SUB SWAP1 RETURN JUMPDEST PUSH2 0x25F PUSH2 0x69E JUMP JUMPDEST STOP JUMPDEST CALLVALUE DUP1 ISZERO PUSH2 0x26D JUMPI PUSH1 0x0 DUP1 REVERT JUMPDEST POP PUSH2 0x288 PUSH1 0x4 DUP1 CALLDATASIZE SUB DUP2 ADD SWAP1 PUSH2 0x283 SWAP2 SWAP1 PUSH2 0x9D4 JUMP JUMPDEST PUSH2 0x770 JUMP JUMPDEST STOP JUMPDEST CALLVALUE DUP1 ISZERO PUSH2 0x296 JUMPI PUSH1 0x0 DUP1 REVERT JUMPDEST POP PUSH2 0x29F PUSH2 0x8E1 JUMP JUMPDEST PUSH1 0x40 MLOAD PUSH2 0x2AC SWAP2 SWAP1 PUSH2 0xCC4 JUMP JUMPDEST PUSH1 0x40 MLOAD DUP1 SWAP2 SUB SWAP1 RETURN JUMPDEST PUSH1 0x0 DUP1 SLOAD SWAP1 PUSH2 0x100 EXP SWAP1 DIV PUSH20 0xFFFFFFFFFFFFFFFFFFFFFFFFFFFFFFFFFFFFFFFF AND PUSH20 0xFFFFFFFFFFFFFFFFFFFFFFFFFFFFFFFFFFFFFFFF AND CALLER PUSH20 0xFFFFFFFFFFFFFFFFFFFFFFFFFFFFFFFFFFFFFFFF AND EQ PUSH2 0x30D JUMPI PUSH1 0x0 DUP1 REVERT JUMPDEST PUSH1 0x0 PUSH1 0x5 PUSH1 0x0 DUP4 DUP2 MSTORE PUSH1 0x20 ADD SWAP1 DUP2 MSTORE PUSH1 0x20 ADD PUSH1 0x0 KECCAK256 SWAP1 POP DUP1 PUSH1 0x2 ADD PUSH1 0x14 SWAP1 SLOAD SWAP1 PUSH2 0x100 EXP SWAP1 DIV PUSH1 0xFF AND ISZERO PUSH2 0x340 JUMPI PUSH1 0x0 DUP1 REVERT JUMPDEST PUSH1 0x2 DUP1 SLOAD PUSH2 0x34E SWAP2 SWAP1 PUSH2 0xEAB JUMP JUMPDEST DUP2 PUSH1 0x3 ADD SLOAD GT PUSH2 0x35D JUMPI PUSH1 0x0 DUP1 REVERT JUMPDEST PUSH1 0x1 DUP2 PUSH1 0x2 ADD PUSH1 0x14 PUSH2 0x100 EXP DUP2 SLOAD DUP2 PUSH1 0xFF MUL NOT AND SWAP1 DUP4 ISZERO ISZERO MUL OR SWAP1 SSTORE POP DUP1 PUSH1 0x2 ADD PUSH1 0x0 SWAP1 SLOAD SWAP1 PUSH2 0x100 EXP SWAP1 DIV PUSH20 0xFFFFFFFFFFFFFFFFFFFFFFFFFFFFFFFFFFFFFFFF AND PUSH20 0xFFFFFFFFFFFFFFFFFFFFFFFFFFFFFFFFFFFFFFFF AND PUSH2 0x8FC DUP3 PUSH1 0x1 ADD SLOAD SWAP1 DUP2 ISZERO MUL SWAP1 PUSH1 0x40 MLOAD PUSH1 0x0 PUSH1 0x40 MLOAD DUP1 DUP4 SUB DUP2 DUP6 DUP9 DUP9 CALL SWAP4 POP POP POP POP ISZERO DUP1 ISZERO PUSH2 0x3E8 JUMPI RETURNDATASIZE PUSH1 0x0 DUP1 RETURNDATACOPY RETURNDATASIZE PUSH1 0x0 REVERT JUMPDEST POP POP POP JUMP JUMPDEST PUSH1 0x4 PUSH1 0x20 MSTORE DUP1 PUSH1 0x0 MSTORE PUSH1 0x40 PUSH1 0x0 KECCAK256 PUSH1 0x0 SWAP2 POP SLOAD SWAP1 PUSH2 0x100 EXP SWAP1 DIV PUSH1 0xFF AND DUP2 JUMP JUMPDEST PUSH1 0x0 DUP1 SLOAD SWAP1 PUSH2 0x100 EXP SWAP1 DIV PUSH20 0xFFFFFFFFFFFFFFFFFFFFFFFFFFFFFFFFFFFFFFFF AND PUSH20 0xFFFFFFFFFFFFFFFFFFFFFFFFFFFFFFFFFFFFFFFF AND CALLER PUSH20 0xFFFFFFFFFFFFFFFFFFFFFFFFFFFFFFFFFFFFFFFF AND EQ PUSH2 0x465 JUMPI PUSH1 0x0 DUP1 REVERT JUMPDEST SELFBALANCE DUP3 GT ISZERO PUSH2 0x472 JUMPI PUSH1 0x0 DUP1 REVERT JUMPDEST PUSH1 0x0 PUSH1 0x5 PUSH1 0x0 PUSH1 0x3 SLOAD DUP2 MSTORE PUSH1 0x20 ADD SWAP1 DUP2 MSTORE PUSH1 0x20 ADD PUSH1 0x0 KECCAK256 SWAP1 POP DUP4 DUP2 PUSH1 0x0 ADD SWAP1 DUP1 MLOAD SWAP1 PUSH1 0x20 ADD SWAP1 PUSH2 0x4A3 SWAP3 SWAP2 SWAP1 PUSH2 0x8E7 JUMP JUMPDEST POP DUP2 DUP2 PUSH1 0x2 ADD PUSH1 0x0 PUSH2 0x100 EXP DUP2 SLOAD DUP2 PUSH20 0xFFFFFFFFFFFFFFFFFFFFFFFFFFFFFFFFFFFFFFFF MUL NOT AND SWAP1 DUP4 PUSH20 0xFFFFFFFFFFFFFFFFFFFFFFFFFFFFFFFFFFFFFFFF AND MUL OR SWAP1 SSTORE POP DUP3 DUP2 PUSH1 0x1 ADD DUP2 SWAP1 SSTORE POP PUSH1 0x0 DUP2 PUSH1 0x2 ADD PUSH1 0x14 PUSH2 0x100 EXP DUP2 SLOAD DUP2 PUSH1 0xFF MUL NOT AND SWAP1 DUP4 ISZERO ISZERO MUL OR SWAP1 SSTORE POP PUSH1 0x0 DUP2 PUSH1 0x3 ADD DUP2 SWAP1 SSTORE POP PUSH1 0x3 PUSH1 0x0 DUP2 SLOAD DUP1 SWAP3 SWAP2 SWAP1 PUSH2 0x52A SWAP1 PUSH2 0xEDC JUMP JUMPDEST SWAP2 SWAP1 POP SSTORE POP POP POP POP POP JUMP JUMPDEST PUSH1 0x0 PUSH1 0x3 SLOAD SWAP1 POP SWAP1 JUMP JUMPDEST PUSH1 0x0 DUP1 PUSH1 0x0 DUP1 PUSH1 0x0 PUSH1 0x1 SLOAD SELFBALANCE PUSH1 0x3 SLOAD PUSH1 0x2 SLOAD PUSH1 0x0 DUP1 SLOAD SWAP1 PUSH2 0x100 EXP SWAP1 DIV PUSH20 0xFFFFFFFFFFFFFFFFFFFFFFFFFFFFFFFFFFFFFFFF AND SWAP5 POP SWAP5 POP SWAP5 POP SWAP5 POP SWAP5 POP SWAP1 SWAP2 SWAP3 SWAP4 SWAP5 JUMP JUMPDEST PUSH1 0x3 SLOAD DUP2 JUMP JUMPDEST PUSH1 0x0 DUP1 SLOAD SWAP1 PUSH2 0x100 EXP SWAP1 DIV PUSH20 0xFFFFFFFFFFFFFFFFFFFFFFFFFFFFFFFFFFFFFFFF AND DUP2 JUMP JUMPDEST PUSH1 0x5 PUSH1 0x20 MSTORE DUP1 PUSH1 0x0 MSTORE PUSH1 0x40 PUSH1 0x0 KECCAK256 PUSH1 0x0 SWAP2 POP SWAP1 POP DUP1 PUSH1 0x0 ADD DUP1 SLOAD PUSH2 0x5D0 SWAP1 PUSH2 0xF53 JUMP JUMPDEST DUP1 PUSH1 0x1F ADD PUSH1 0x20 DUP1 SWAP2 DIV MUL PUSH1 0x20 ADD PUSH1 0x40 MLOAD SWAP1 DUP2 ADD PUSH1 0x40 MSTORE DUP1 SWAP3 SWAP2 SWAP1 DUP2 DUP2 MSTORE PUSH1 0x20 ADD DUP3 DUP1 SLOAD PUSH2 0x5FC SWAP1 PUSH2 0xF53 JUMP JUMPDEST DUP1 ISZERO PUSH2 0x649 JUMPI DUP1 PUSH1 0x1F LT PUSH2 0x61E JUMPI PUSH2 0x100 DUP1 DUP4 SLOAD DIV MUL DUP4 MSTORE SWAP2 PUSH1 0x20 ADD SWAP2 PUSH2 0x649 JUMP JUMPDEST DUP3 ADD SWAP2 SWAP1 PUSH1 0x0 MSTORE PUSH1 0x20 PUSH1 0x0 KECCAK256 SWAP1 JUMPDEST DUP2 SLOAD DUP2 MSTORE SWAP1 PUSH1 0x1 ADD SWAP1 PUSH1 0x20 ADD DUP1 DUP4 GT PUSH2 0x62C JUMPI DUP3 SWAP1 SUB PUSH1 0x1F AND DUP3 ADD SWAP2 JUMPDEST POP POP POP POP POP SWAP1 DUP1 PUSH1 0x1 ADD SLOAD SWAP1 DUP1 PUSH1 0x2 ADD PUSH1 0x0 SWAP1 SLOAD SWAP1 PUSH2 0x100 EXP SWAP1 DIV PUSH20 0xFFFFFFFFFFFFFFFFFFFFFFFFFFFFFFFFFFFFFFFF AND SWAP1 DUP1 PUSH1 0x2 ADD PUSH1 0x14 SWAP1 SLOAD SWAP1 PUSH2 0x100 EXP SWAP1 DIV PUSH1 0xFF AND SWAP1 DUP1 PUSH1 0x3 ADD SLOAD SWAP1 POP DUP6 JUMP JUMPDEST PUSH1 0x1 SLOAD DUP2 JUMP JUMPDEST PUSH1 0x1 SLOAD CALLVALUE GT PUSH2 0x6AC JUMPI PUSH1 0x0 DUP1 REVERT JUMPDEST PUSH1 0x4 PUSH1 0x0 CALLER PUSH20 0xFFFFFFFFFFFFFFFFFFFFFFFFFFFFFFFFFFFFFFFF AND PUSH20 0xFFFFFFFFFFFFFFFFFFFFFFFFFFFFFFFFFFFFFFFF AND DUP2 MSTORE PUSH1 0x20 ADD SWAP1 DUP2 MSTORE PUSH1 0x20 ADD PUSH1 0x0 KECCAK256 PUSH1 0x0 SWAP1 SLOAD SWAP1 PUSH2 0x100 EXP SWAP1 DIV PUSH1 0xFF AND PUSH2 0x76E JUMPI PUSH1 0x1 PUSH1 0x4 PUSH1 0x0 CALLER PUSH20 0xFFFFFFFFFFFFFFFFFFFFFFFFFFFFFFFFFFFFFFFF AND PUSH20 0xFFFFFFFFFFFFFFFFFFFFFFFFFFFFFFFFFFFFFFFF AND DUP2 MSTORE PUSH1 0x20 ADD SWAP1 DUP2 MSTORE PUSH1 0x20 ADD PUSH1 0x0 KECCAK256 PUSH1 0x0 PUSH2 0x100 EXP DUP2 SLOAD DUP2 PUSH1 0xFF MUL NOT AND SWAP1 DUP4 ISZERO ISZERO MUL OR SWAP1 SSTORE POP PUSH1 0x2 PUSH1 0x0 DUP2 SLOAD DUP1 SWAP3 SWAP2 SWAP1 PUSH2 0x768 SWAP1 PUSH2 0xEDC JUMP JUMPDEST SWAP2 SWAP1 POP SSTORE POP JUMPDEST JUMP JUMPDEST PUSH1 0x0 PUSH1 0x5 PUSH1 0x0 DUP4 DUP2 MSTORE PUSH1 0x20 ADD SWAP1 DUP2 MSTORE PUSH1 0x20 ADD PUSH1 0x0 KECCAK256 SWAP1 POP PUSH1 0x0 DUP2 PUSH1 0x1 ADD SLOAD SUB PUSH2 0x798 JUMPI PUSH1 0x0 DUP1 REVERT JUMPDEST DUP1 PUSH1 0x2 ADD PUSH1 0x14 SWAP1 SLOAD SWAP1 PUSH2 0x100 EXP SWAP1 DIV PUSH1 0xFF AND ISZERO PUSH2 0x7B4 JUMPI PUSH1 0x0 DUP1 REVERT JUMPDEST PUSH1 0x4 PUSH1 0x0 CALLER PUSH20 0xFFFFFFFFFFFFFFFFFFFFFFFFFFFFFFFFFFFFFFFF AND PUSH20 0xFFFFFFFFFFFFFFFFFFFFFFFFFFFFFFFFFFFFFFFF AND DUP2 MSTORE PUSH1 0x20 ADD SWAP1 DUP2 MSTORE PUSH1 0x20 ADD PUSH1 0x0 KECCAK256 PUSH1 0x0 SWAP1 SLOAD SWAP1 PUSH2 0x100 EXP SWAP1 DIV PUSH1 0xFF AND PUSH2 0x80A JUMPI PUSH1 0x0 DUP1 REVERT JUMPDEST PUSH1 0x0 ISZERO ISZERO DUP2 PUSH1 0x4 ADD PUSH1 0x0 CALLER PUSH20 0xFFFFFFFFFFFFFFFFFFFFFFFFFFFFFFFFFFFFFFFF AND PUSH20 0xFFFFFFFFFFFFFFFFFFFFFFFFFFFFFFFFFFFFFFFF AND DUP2 MSTORE PUSH1 0x20 ADD SWAP1 DUP2 MSTORE PUSH1 0x20 ADD PUSH1 0x0 KECCAK256 PUSH1 0x0 SWAP1 SLOAD SWAP1 PUSH2 0x100 EXP SWAP1 DIV PUSH1 0xFF AND ISZERO ISZERO EQ PUSH2 0x869 JUMPI PUSH1 0x0 DUP1 REVERT JUMPDEST PUSH1 0x1 DUP2 PUSH1 0x4 ADD PUSH1 0x0 CALLER PUSH20 0xFFFFFFFFFFFFFFFFFFFFFFFFFFFFFFFFFFFFFFFF AND PUSH20 0xFFFFFFFFFFFFFFFFFFFFFFFFFFFFFFFFFFFFFFFF AND DUP2 MSTORE PUSH1 0x20 ADD SWAP1 DUP2 MSTORE PUSH1 0x20 ADD PUSH1 0x0 KECCAK256 PUSH1 0x0 PUSH2 0x100 EXP DUP2 SLOAD DUP2 PUSH1 0xFF MUL NOT AND SWAP1 DUP4 ISZERO ISZERO MUL OR SWAP1 SSTORE POP DUP1 PUSH1 0x3 ADD PUSH1 0x0 DUP2 SLOAD DUP1 SWAP3 SWAP2 SWAP1 PUSH2 0x8D8 SWAP1 PUSH2 0xEDC JUMP JUMPDEST SWAP2 SWAP1 POP SSTORE POP POP POP JUMP JUMPDEST PUSH1 0x2 SLOAD DUP2 JUMP JUMPDEST DUP3 DUP1 SLOAD PUSH2 0x8F3 SWAP1 PUSH2 0xF53 JUMP JUMPDEST SWAP1 PUSH1 0x0 MSTORE PUSH1 0x20 PUSH1 0x0 KECCAK256 SWAP1 PUSH1 0x1F ADD PUSH1 0x20 SWAP1 DIV DUP2 ADD SWAP3 DUP3 PUSH2 0x915 JUMPI PUSH1 0x0 DUP6 SSTORE PUSH2 0x95C JUMP JUMPDEST DUP3 PUSH1 0x1F LT PUSH2 0x92E JUMPI DUP1 MLOAD PUSH1 0xFF NOT AND DUP4 DUP1 ADD OR DUP6 SSTORE PUSH2 0x95C JUMP JUMPDEST DUP3 DUP1 ADD PUSH1 0x1 ADD DUP6 SSTORE DUP3 ISZERO PUSH2 0x95C JUMPI SWAP2 DUP3 ADD JUMPDEST DUP3 DUP2 GT ISZERO PUSH2 0x95B JUMPI DUP3 MLOAD DUP3 SSTORE SWAP2 PUSH1 0x20 ADD SWAP2 SWAP1 PUSH1 0x1 ADD SWAP1 PUSH2 0x940 JUMP JUMPDEST JUMPDEST POP SWAP1 POP PUSH2 0x969 SWAP2 SWAP1 PUSH2 0x96D JUMP JUMPDEST POP SWAP1 JUMP JUMPDEST JUMPDEST DUP1 DUP3 GT ISZERO PUSH2 0x986 JUMPI PUSH1 0x0 DUP2 PUSH1 0x0 SWAP1 SSTORE POP PUSH1 0x1 ADD PUSH2 0x96E JUMP JUMPDEST POP SWAP1 JUMP JUMPDEST PUSH1 0x0 PUSH1 0x40 MLOAD SWAP1 POP SWAP1 JUMP JUMPDEST PUSH1 0x0 DUP1 REVERT JUMPDEST PUSH1 0x0 DUP1 REVERT JUMPDEST PUSH1 0x0 DUP2 SWAP1 POP SWAP2 SWAP1 POP JUMP JUMPDEST PUSH2 0x9B1 DUP2 PUSH2 0x99E JUMP JUMPDEST DUP2 EQ PUSH2 0x9BC JUMPI PUSH1 0x0 DUP1 REVERT JUMPDEST POP JUMP JUMPDEST PUSH1 0x0 DUP2 CALLDATALOAD SWAP1 POP PUSH2 0x9CE DUP2 PUSH2 0x9A8 JUMP JUMPDEST SWAP3 SWAP2 POP POP JUMP JUMPDEST PUSH1 0x0 PUSH1 0x20 DUP3 DUP5 SUB SLT ISZERO PUSH2 0x9EA JUMPI PUSH2 0x9E9 PUSH2 0x994 JUMP JUMPDEST JUMPDEST PUSH1 0x0 PUSH2 0x9F8 DUP5 DUP3 DUP6 ADD PUSH2 0x9BF JUMP JUMPDEST SWAP2 POP POP SWAP3 SWAP2 POP POP JUMP JUMPDEST PUSH1 0x0 PUSH20 0xFFFFFFFFFFFFFFFFFFFFFFFFFFFFFFFFFFFFFFFF DUP3 AND SWAP1 POP SWAP2 SWAP1 POP JUMP JUMPDEST PUSH1 0x0 PUSH2 0xA2C DUP3 PUSH2 0xA01 JUMP JUMPDEST SWAP1 POP SWAP2 SWAP1 POP JUMP JUMPDEST PUSH2 0xA3C DUP2 PUSH2 0xA21 JUMP JUMPDEST DUP2 EQ PUSH2 0xA47 JUMPI PUSH1 0x0 DUP1 REVERT JUMPDEST POP JUMP JUMPDEST PUSH1 0x0 DUP2 CALLDATALOAD SWAP1 POP PUSH2 0xA59 DUP2 PUSH2 0xA33 JUMP JUMPDEST SWAP3 SWAP2 POP POP JUMP JUMPDEST PUSH1 0x0 PUSH1 0x20 DUP3 DUP5 SUB SLT ISZERO PUSH2 0xA75 JUMPI PUSH2 0xA74 PUSH2 0x994 JUMP JUMPDEST JUMPDEST PUSH1 0x0 PUSH2 0xA83 DUP5 DUP3 DUP6 ADD PUSH2 0xA4A JUMP JUMPDEST SWAP2 POP POP SWAP3 SWAP2 POP POP JUMP JUMPDEST PUSH1 0x0 DUP2 ISZERO ISZERO SWAP1 POP SWAP2 SWAP1 POP JUMP JUMPDEST PUSH2 0xAA1 DUP2 PUSH2 0xA8C JUMP JUMPDEST DUP3 MSTORE POP POP JUMP JUMPDEST PUSH1 0x0 PUSH1 0x20 DUP3 ADD SWAP1 POP PUSH2 0xABC PUSH1 0x0 DUP4 ADD DUP5 PUSH2 0xA98 JUMP JUMPDEST SWAP3 SWAP2 POP POP JUMP JUMPDEST PUSH1 0x0 DUP1 REVERT JUMPDEST PUSH1 0x0 DUP1 REVERT JUMPDEST PUSH1 0x0 PUSH1 0x1F NOT PUSH1 0x1F DUP4 ADD AND SWAP1 POP SWAP2 SWAP1 POP JUMP JUMPDEST PUSH32 0x4E487B7100000000000000000000000000000000000000000000000000000000 PUSH1 0x0 MSTORE PUSH1 0x41 PUSH1 0x4 MSTORE PUSH1 0x24 PUSH1 0x0 REVERT JUMPDEST PUSH2 0xB15 DUP3 PUSH2 0xACC JUMP JUMPDEST DUP2 ADD DUP2 DUP2 LT PUSH8 0xFFFFFFFFFFFFFFFF DUP3 GT OR ISZERO PUSH2 0xB34 JUMPI PUSH2 0xB33 PUSH2 0xADD JUMP JUMPDEST JUMPDEST DUP1 PUSH1 0x40 MSTORE POP POP POP JUMP JUMPDEST PUSH1 0x0 PUSH2 0xB47 PUSH2 0x98A JUMP JUMPDEST SWAP1 POP PUSH2 0xB53 DUP3 DUP3 PUSH2 0xB0C JUMP JUMPDEST SWAP2 SWAP1 POP JUMP JUMPDEST PUSH1 0x0 PUSH8 0xFFFFFFFFFFFFFFFF DUP3 GT ISZERO PUSH2 0xB73 JUMPI PUSH2 0xB72 PUSH2 0xADD JUMP JUMPDEST JUMPDEST PUSH2 0xB7C DUP3 PUSH2 0xACC JUMP JUMPDEST SWAP1 POP PUSH1 0x20 DUP2 ADD SWAP1 POP SWAP2 SWAP1 POP JUMP JUMPDEST DUP3 DUP2 DUP4 CALLDATACOPY PUSH1 0x0 DUP4 DUP4 ADD MSTORE POP POP POP JUMP JUMPDEST PUSH1 0x0 PUSH2 0xBAB PUSH2 0xBA6 DUP5 PUSH2 0xB58 JUMP JUMPDEST PUSH2 0xB3D JUMP JUMPDEST SWAP1 POP DUP3 DUP2 MSTORE PUSH1 0x20 DUP2 ADD DUP5 DUP5 DUP5 ADD GT ISZERO PUSH2 0xBC7 JUMPI PUSH2 0xBC6 PUSH2 0xAC7 JUMP JUMPDEST JUMPDEST PUSH2 0xBD2 DUP5 DUP3 DUP6 PUSH2 0xB89 JUMP JUMPDEST POP SWAP4 SWAP3 POP POP POP JUMP JUMPDEST PUSH1 0x0 DUP3 PUSH1 0x1F DUP4 ADD SLT PUSH2 0xBEF JUMPI PUSH2 0xBEE PUSH2 0xAC2 JUMP JUMPDEST JUMPDEST DUP2 CALLDATALOAD PUSH2 0xBFF DUP5 DUP3 PUSH1 0x20 DUP7 ADD PUSH2 0xB98 JUMP JUMPDEST SWAP2 POP POP SWAP3 SWAP2 POP POP JUMP JUMPDEST PUSH1 0x0 PUSH2 0xC13 DUP3 PUSH2 0xA01 JUMP JUMPDEST SWAP1 POP SWAP2 SWAP1 POP JUMP JUMPDEST PUSH2 0xC23 DUP2 PUSH2 0xC08 JUMP JUMPDEST DUP2 EQ PUSH2 0xC2E JUMPI PUSH1 0x0 DUP1 REVERT JUMPDEST POP JUMP JUMPDEST PUSH1 0x0 DUP2 CALLDATALOAD SWAP1 POP PUSH2 0xC40 DUP2 PUSH2 0xC1A JUMP JUMPDEST SWAP3 SWAP2 POP POP JUMP JUMPDEST PUSH1 0x0 DUP1 PUSH1 0x0 PUSH1 0x60 DUP5 DUP7 SUB SLT ISZERO PUSH2 0xC5F JUMPI PUSH2 0xC5E PUSH2 0x994 JUMP JUMPDEST JUMPDEST PUSH1 0x0 DUP5 ADD CALLDATALOAD PUSH8 0xFFFFFFFFFFFFFFFF DUP2 GT ISZERO PUSH2 0xC7D JUMPI PUSH2 0xC7C PUSH2 0x999 JUMP JUMPDEST JUMPDEST PUSH2 0xC89 DUP7 DUP3 DUP8 ADD PUSH2 0xBDA JUMP JUMPDEST SWAP4 POP POP PUSH1 0x20 PUSH2 0xC9A DUP7 DUP3 DUP8 ADD PUSH2 0x9BF JUMP JUMPDEST SWAP3 POP POP PUSH1 0x40 PUSH2 0xCAB DUP7 DUP3 DUP8 ADD PUSH2 0xC31 JUMP JUMPDEST SWAP2 POP POP SWAP3 POP SWAP3 POP SWAP3 JUMP JUMPDEST PUSH2 0xCBE DUP2 PUSH2 0x99E JUMP JUMPDEST DUP3 MSTORE POP POP JUMP JUMPDEST PUSH1 0x0 PUSH1 0x20 DUP3 ADD SWAP1 POP PUSH2 0xCD9 PUSH1 0x0 DUP4 ADD DUP5 PUSH2 0xCB5 JUMP JUMPDEST SWAP3 SWAP2 POP POP JUMP JUMPDEST PUSH2 0xCE8 DUP2 PUSH2 0xA21 JUMP JUMPDEST DUP3 MSTORE POP POP JUMP JUMPDEST PUSH1 0x0 PUSH1 0xA0 DUP3 ADD SWAP1 POP PUSH2 0xD03 PUSH1 0x0 DUP4 ADD DUP9 PUSH2 0xCB5 JUMP JUMPDEST PUSH2 0xD10 PUSH1 0x20 DUP4 ADD DUP8 PUSH2 0xCB5 JUMP JUMPDEST PUSH2 0xD1D PUSH1 0x40 DUP4 ADD DUP7 PUSH2 0xCB5 JUMP JUMPDEST PUSH2 0xD2A PUSH1 0x60 DUP4 ADD DUP6 PUSH2 0xCB5 JUMP JUMPDEST PUSH2 0xD37 PUSH1 0x80 DUP4 ADD DUP5 PUSH2 0xCDF JUMP JUMPDEST SWAP7 SWAP6 POP POP POP POP POP POP JUMP JUMPDEST PUSH1 0x0 PUSH1 0x20 DUP3 ADD SWAP1 POP PUSH2 0xD56 PUSH1 0x0 DUP4 ADD DUP5 PUSH2 0xCDF JUMP JUMPDEST SWAP3 SWAP2 POP POP JUMP JUMPDEST PUSH1 0x0 DUP2 MLOAD SWAP1 POP SWAP2 SWAP1 POP JUMP JUMPDEST PUSH1 0x0 DUP3 DUP3 MSTORE PUSH1 0x20 DUP3 ADD SWAP1 POP SWAP3 SWAP2 POP POP JUMP JUMPDEST PUSH1 0x0 JUMPDEST DUP4 DUP2 LT ISZERO PUSH2 0xD96 JUMPI DUP1 DUP3 ADD MLOAD DUP2 DUP5 ADD MSTORE PUSH1 0x20 DUP2 ADD SWAP1 POP PUSH2 0xD7B JUMP JUMPDEST DUP4 DUP2 GT ISZERO PUSH2 0xDA5 JUMPI PUSH1 0x0 DUP5 DUP5 ADD MSTORE JUMPDEST POP POP POP POP JUMP JUMPDEST PUSH1 0x0 PUSH2 0xDB6 DUP3 PUSH2 0xD5C JUMP JUMPDEST PUSH2 0xDC0 DUP2 DUP6 PUSH2 0xD67 JUMP JUMPDEST SWAP4 POP PUSH2 0xDD0 DUP2 DUP6 PUSH1 0x20 DUP7 ADD PUSH2 0xD78 JUMP JUMPDEST PUSH2 0xDD9 DUP2 PUSH2 0xACC JUMP JUMPDEST DUP5 ADD SWAP2 POP POP SWAP3 SWAP2 POP POP JUMP JUMPDEST PUSH2 0xDED DUP2 PUSH2 0xC08 JUMP JUMPDEST DUP3 MSTORE POP POP JUMP JUMPDEST PUSH1 0x0 PUSH1 0xA0 DUP3 ADD SWAP1 POP DUP2 DUP2 SUB PUSH1 0x0 DUP4 ADD MSTORE PUSH2 0xE0D DUP2 DUP9 PUSH2 0xDAB JUMP JUMPDEST SWAP1 POP PUSH2 0xE1C PUSH1 0x20 DUP4 ADD DUP8 PUSH2 0xCB5 JUMP JUMPDEST PUSH2 0xE29 PUSH1 0x40 DUP4 ADD DUP7 PUSH2 0xDE4 JUMP JUMPDEST PUSH2 0xE36 PUSH1 0x60 DUP4 ADD DUP6 PUSH2 0xA98 JUMP JUMPDEST PUSH2 0xE43 PUSH1 0x80 DUP4 ADD DUP5 PUSH2 0xCB5 JUMP JUMPDEST SWAP7 SWAP6 POP POP POP POP POP POP JUMP JUMPDEST PUSH32 0x4E487B7100000000000000000000000000000000000000000000000000000000 PUSH1 0x0 MSTORE PUSH1 0x12 PUSH1 0x4 MSTORE PUSH1 0x24 PUSH1 0x0 REVERT JUMPDEST PUSH32 0x4E487B7100000000000000000000000000000000000000000000000000000000 PUSH1 0x0 MSTORE PUSH1 0x11 PUSH1 0x4 MSTORE PUSH1 0x24 PUSH1 0x0 REVERT JUMPDEST PUSH1 0x0 PUSH2 0xEB6 DUP3 PUSH2 0x99E JUMP JUMPDEST SWAP2 POP PUSH2 0xEC1 DUP4 PUSH2 0x99E JUMP JUMPDEST SWAP3 POP DUP3 PUSH2 0xED1 JUMPI PUSH2 0xED0 PUSH2 0xE4D JUMP JUMPDEST JUMPDEST DUP3 DUP3 DIV SWAP1 POP SWAP3 SWAP2 POP POP JUMP JUMPDEST PUSH1 0x0 PUSH2 0xEE7 DUP3 PUSH2 0x99E JUMP JUMPDEST SWAP2 POP PUSH32 0xFFFFFFFFFFFFFFFFFFFFFFFFFFFFFFFFFFFFFFFFFFFFFFFFFFFFFFFFFFFFFFFF DUP3 SUB PUSH2 0xF19 JUMPI PUSH2 0xF18 PUSH2 0xE7C JUMP JUMPDEST JUMPDEST PUSH1 0x1 DUP3 ADD SWAP1 POP SWAP2 SWAP1 POP JUMP JUMPDEST PUSH32 0x4E487B7100000000000000000000000000000000000000000000000000000000 PUSH1 0x0 MSTORE PUSH1 0x22 PUSH1 0x4 MSTORE PUSH1 0x24 PUSH1 0x0 REVERT JUMPDEST PUSH1 0x0 PUSH1 0x2 DUP3 DIV SWAP1 POP PUSH1 0x1 DUP3 AND DUP1 PUSH2 0xF6B JUMPI PUSH1 0x7F DUP3 AND SWAP2 POP JUMPDEST PUSH1 0x20 DUP3 LT DUP2 SUB PUSH2 0xF7E JUMPI PUSH2 0xF7D PUSH2 0xF24 JUMP JUMPDEST JUMPDEST POP SWAP2 SWAP1 POP JUMP INVALID LOG2 PUSH5 0x6970667358 0x22 SLT KECCAK256 DIV SIGNEXTEND LOG0 PUSH15 0x79767483C0D8DC180983318A45A689 PUSH4 0x6DE36C26 SLOAD SWAP10 STATICCALL 0xD8 PUSH3 0xE7E835 PUSH5 0x736F6C6343 STOP ADDMOD 0xE STOP CALLER "},"gasEstimates":{"creation":{"codeDepositCost":"805200","executionCost":"infinite","totalCost":"infinite"},"external":{"approveRequest(uint256)":"infinite","approvers(address)":"2868","contribute()":"53263","contributorCount()":"2539","createRequests(string,uint256,address)":"infinite","finalizeRequest(uint256)":"infinite","getRequestsCount()":"2504","getSummary()":"infinite","manager()":"2511","minContribution()":"2473","requestIndex()":"2540","requests(uint256)":"infinite"}},"methodIdentifiers":{"approveRequest(uint256)":"d7d1bbdb","approvers(address)":"0a144391","contribute()":"d7bb99ba","contributorCount()":"ecfd8928","createRequests(string,uint256,address)":"277c3da4","finalizeRequest(uint256)":"03441006","getRequestsCount()":"3410452a","getSummary()":"4051ddac","manager()":"481c6a75","minContribution()":"aaffadf3","requestIndex()":"420714bd","requests(uint256)":"81d12c58"}},"storageLayout":{"storage":[{"astId":56,"contract":"campaign.sol:Campaign","label":"manager","offset":0,"slot":"0","type":"t_address"},{"astId":58,"contract":"campaign.sol:Campaign","label":"minContribution","offset":0,"slot":"1","type":"t_uint256"},{"astId":60,"contract":"campaign.sol:Campaign","label":"contributorCount","offset":0,"slot":"2","type":"t_uint256"},{"astId":62,"contract":"campaign.sol:Campaign","label":"requestIndex","offset":0,"slot":"3","type":"t_uint256"},{"astId":66,"contract":"campaign.sol:Campaign","label":"approvers","offset":0,"slot":"4","type":"t_mapping(t_address,t_bool)"},{"astId":71,"contract":"campaign.sol:Campaign","label":"requests","offset":0,"slot":"5","type":"t_mapping(t_uint256,t_struct(Request)54_storage)"}],"types":{"t_address":{"encoding":"inplace","label":"address","numberOfBytes":"20"},"t_address_payable":{"encoding":"inplace","label":"address payable","numberOfBytes":"20"},"t_bool":{"encoding":"inplace","label":"bool","numberOfBytes":"1"},"t_mapping(t_address,t_bool)":{"encoding":"mapping","key":"t_address","label":"mapping(address => bool)","numberOfBytes":"32","value":"t_bool"},"t_mapping(t_uint256,t_struct(Request)54_storage)":{"encoding":"mapping","key":"t_uint256","label":"mapping(uint256 => struct Campaign.Request)","numberOfBytes":"32","value":"t_struct(Request)54_storage"},"t_string_storage":{"encoding":"bytes","label":"string","numberOfBytes":"32"},"t_struct(Request)54_storage":{"encoding":"inplace","label":"struct Campaign.Request","members":[{"astId":41,"contract":"campaign.sol:Campaign","label":"description","offset":0,"slot":"0","type":"t_string_storage"},{"astId":43,"contract":"campaign.sol:Campaign","label":"value","offset":0,"slot":"1","type":"t_uint256"},{"astId":45,"contract":"campaign.sol:Campaign","label":"recipient","offset":0,"slot":"2","type":"t_address_payable"},{"astId":47,"contract":"campaign.sol:Campaign","label":"complete","offset":20,"slot":"2","type":"t_bool"},{"astId":49,"contract":"campaign.sol:Campaign","label":"approvalCount","offset":0,"slot":"3","type":"t_uint256"},{"astId":53,"contract":"campaign.sol:Campaign","label":"approvals","offset":0,"slot":"4","type":"t_mapping(t_address,t_bool)"}],"numberOfBytes":"160"},"t_uint256":{"encoding":"inplace","label":"uint256","numberOfBytes":"32"}}},"userdoc":{"kind":"user","methods":{},"version":1}}